{
  "_format": "hh-sol-artifact-1",
  "contractName": "DefaultSBT",
  "sourceName": "contracts/SBT/DefaultSBT.sol",
  "abi": [
    {
      "inputs": [],
      "stateMutability": "nonpayable",
      "type": "constructor"
    },
    {
      "inputs": [],
      "name": "ErrLocked",
      "type": "error"
    },
    {
      "inputs": [],
      "name": "ErrNotFound",
      "type": "error"
    },
    {
      "anonymous": false,
      "inputs": [
        {
          "indexed": true,
          "internalType": "address",
          "name": "owner",
          "type": "address"
        },
        {
          "indexed": true,
          "internalType": "address",
          "name": "approved",
          "type": "address"
        },
        {
          "indexed": true,
          "internalType": "uint256",
          "name": "tokenId",
          "type": "uint256"
        }
      ],
      "name": "Approval",
      "type": "event"
    },
    {
      "anonymous": false,
      "inputs": [
        {
          "indexed": true,
          "internalType": "address",
          "name": "owner",
          "type": "address"
        },
        {
          "indexed": true,
          "internalType": "address",
          "name": "operator",
          "type": "address"
        },
        {
          "indexed": false,
          "internalType": "bool",
          "name": "approved",
          "type": "bool"
        }
      ],
      "name": "ApprovalForAll",
      "type": "event"
    },
    {
      "anonymous": false,
      "inputs": [
        {
          "indexed": false,
          "internalType": "uint256",
          "name": "_fromTokenId",
          "type": "uint256"
        },
        {
          "indexed": false,
          "internalType": "uint256",
          "name": "_toTokenId",
          "type": "uint256"
        }
      ],
      "name": "BatchMetadataUpdate",
      "type": "event"
    },
    {
      "anonymous": false,
      "inputs": [
        {
          "indexed": false,
          "internalType": "uint256",
          "name": "tokenId",
          "type": "uint256"
        }
      ],
      "name": "Locked",
      "type": "event"
    },
    {
      "anonymous": false,
      "inputs": [
        {
          "indexed": false,
          "internalType": "uint256",
          "name": "_tokenId",
          "type": "uint256"
        }
      ],
      "name": "MetadataUpdate",
      "type": "event"
    },
    {
      "anonymous": false,
      "inputs": [
        {
          "indexed": true,
          "internalType": "address",
          "name": "previousOwner",
          "type": "address"
        },
        {
          "indexed": true,
          "internalType": "address",
          "name": "newOwner",
          "type": "address"
        }
      ],
      "name": "OwnershipTransferred",
      "type": "event"
    },
    {
      "anonymous": false,
      "inputs": [
        {
          "indexed": true,
          "internalType": "address",
          "name": "from",
          "type": "address"
        },
        {
          "indexed": true,
          "internalType": "address",
          "name": "to",
          "type": "address"
        },
        {
          "indexed": true,
          "internalType": "uint256",
          "name": "tokenId",
          "type": "uint256"
        }
      ],
      "name": "Transfer",
      "type": "event"
    },
    {
      "anonymous": false,
      "inputs": [
        {
          "indexed": false,
          "internalType": "uint256",
          "name": "tokenId",
          "type": "uint256"
        }
      ],
      "name": "Unlocked",
      "type": "event"
    },
    {
      "inputs": [
        {
          "internalType": "address",
          "name": "approved",
          "type": "address"
        },
        {
          "internalType": "uint256",
          "name": "tokenId",
          "type": "uint256"
        }
      ],
      "name": "approve",
      "outputs": [],
      "stateMutability": "nonpayable",
      "type": "function"
    },
    {
      "inputs": [
        {
          "internalType": "address",
          "name": "owner",
          "type": "address"
        }
      ],
      "name": "balanceOf",
      "outputs": [
        {
          "internalType": "uint256",
          "name": "",
          "type": "uint256"
        }
      ],
      "stateMutability": "view",
      "type": "function"
    },
    {
      "inputs": [
        {
          "internalType": "uint256",
          "name": "tokenId",
          "type": "uint256"
        }
      ],
      "name": "getApproved",
      "outputs": [
        {
          "internalType": "address",
          "name": "",
          "type": "address"
        }
      ],
      "stateMutability": "view",
      "type": "function"
    },
    {
      "inputs": [
        {
          "internalType": "address",
          "name": "owner",
          "type": "address"
        },
        {
          "internalType": "address",
          "name": "operator",
          "type": "address"
        }
      ],
      "name": "isApprovedForAll",
      "outputs": [
        {
          "internalType": "bool",
          "name": "",
          "type": "bool"
        }
      ],
      "stateMutability": "view",
      "type": "function"
    },
    {
      "inputs": [
        {
          "internalType": "uint256",
          "name": "tokenId",
          "type": "uint256"
        }
      ],
      "name": "locked",
      "outputs": [
        {
          "internalType": "bool",
          "name": "",
          "type": "bool"
        }
      ],
      "stateMutability": "view",
      "type": "function"
    },
    {
      "inputs": [],
      "name": "name",
      "outputs": [
        {
          "internalType": "string",
          "name": "",
          "type": "string"
        }
      ],
      "stateMutability": "view",
      "type": "function"
    },
    {
      "inputs": [],
      "name": "owner",
      "outputs": [
        {
          "internalType": "address",
          "name": "",
          "type": "address"
        }
      ],
      "stateMutability": "view",
      "type": "function"
    },
    {
      "inputs": [
        {
          "internalType": "uint256",
          "name": "tokenId",
          "type": "uint256"
        }
      ],
      "name": "ownerOf",
      "outputs": [
        {
          "internalType": "address",
          "name": "",
          "type": "address"
        }
      ],
      "stateMutability": "view",
      "type": "function"
    },
    {
      "inputs": [],
      "name": "renounceOwnership",
      "outputs": [],
      "stateMutability": "nonpayable",
      "type": "function"
    },
    {
      "inputs": [
        {
          "internalType": "address",
          "name": "to",
          "type": "address"
        },
        {
          "internalType": "string",
          "name": "uri",
          "type": "string"
        }
      ],
      "name": "safeMint",
      "outputs": [],
      "stateMutability": "nonpayable",
      "type": "function"
    },
    {
      "inputs": [
        {
          "internalType": "address",
          "name": "from",
          "type": "address"
        },
        {
          "internalType": "address",
          "name": "to",
          "type": "address"
        },
        {
          "internalType": "uint256",
          "name": "tokenId",
          "type": "uint256"
        }
      ],
      "name": "safeTransferFrom",
      "outputs": [],
      "stateMutability": "nonpayable",
      "type": "function"
    },
    {
      "inputs": [
        {
          "internalType": "address",
          "name": "from",
          "type": "address"
        },
        {
          "internalType": "address",
          "name": "to",
          "type": "address"
        },
        {
          "internalType": "uint256",
          "name": "tokenId",
          "type": "uint256"
        },
        {
          "internalType": "bytes",
          "name": "data",
          "type": "bytes"
        }
      ],
      "name": "safeTransferFrom",
      "outputs": [],
      "stateMutability": "nonpayable",
      "type": "function"
    },
    {
      "inputs": [
        {
          "internalType": "address",
          "name": "operator",
          "type": "address"
        },
        {
          "internalType": "bool",
          "name": "approved",
          "type": "bool"
        }
      ],
      "name": "setApprovalForAll",
      "outputs": [],
      "stateMutability": "nonpayable",
      "type": "function"
    },
    {
      "inputs": [
        {
          "internalType": "bytes4",
          "name": "interfaceId",
          "type": "bytes4"
        }
      ],
      "name": "supportsInterface",
      "outputs": [
        {
          "internalType": "bool",
          "name": "",
          "type": "bool"
        }
      ],
      "stateMutability": "view",
      "type": "function"
    },
    {
      "inputs": [],
      "name": "symbol",
      "outputs": [
        {
          "internalType": "string",
          "name": "",
          "type": "string"
        }
      ],
      "stateMutability": "view",
      "type": "function"
    },
    {
      "inputs": [
        {
          "internalType": "uint256",
          "name": "index",
          "type": "uint256"
        }
      ],
      "name": "tokenByIndex",
      "outputs": [
        {
          "internalType": "uint256",
          "name": "",
          "type": "uint256"
        }
      ],
      "stateMutability": "view",
      "type": "function"
    },
    {
      "inputs": [
        {
          "internalType": "address",
          "name": "owner",
          "type": "address"
        },
        {
          "internalType": "uint256",
          "name": "index",
          "type": "uint256"
        }
      ],
      "name": "tokenOfOwnerByIndex",
      "outputs": [
        {
          "internalType": "uint256",
          "name": "",
          "type": "uint256"
        }
      ],
      "stateMutability": "view",
      "type": "function"
    },
    {
      "inputs": [
        {
          "internalType": "uint256",
          "name": "tokenId",
          "type": "uint256"
        }
      ],
      "name": "tokenURI",
      "outputs": [
        {
          "internalType": "string",
          "name": "",
          "type": "string"
        }
      ],
      "stateMutability": "view",
      "type": "function"
    },
    {
      "inputs": [],
      "name": "totalSupply",
      "outputs": [
        {
          "internalType": "uint256",
          "name": "",
          "type": "uint256"
        }
      ],
      "stateMutability": "view",
      "type": "function"
    },
    {
      "inputs": [
        {
          "internalType": "address",
          "name": "from",
          "type": "address"
        },
        {
          "internalType": "address",
          "name": "to",
          "type": "address"
        },
        {
          "internalType": "uint256",
          "name": "tokenId",
          "type": "uint256"
        }
      ],
      "name": "transferFrom",
      "outputs": [],
      "stateMutability": "nonpayable",
      "type": "function"
    },
    {
      "inputs": [
        {
          "internalType": "address",
          "name": "newOwner",
          "type": "address"
        }
      ],
      "name": "transferOwnership",
      "outputs": [],
      "stateMutability": "nonpayable",
      "type": "function"
    }
  ],
  "bytecode": "0x60806040523480156200001157600080fd5b506040518060400160405280600a815260200169111959985d5b1d14d09560b21b815250604051806040016040528060048152602001631114d09560e21b8152506001828281600090816200006791906200019e565b5060016200007682826200019e565b50506006805460ff19169215159290921790915550620000a191506200009b90503390565b620000a7565b6200026a565b600c80546001600160a01b038381166001600160a01b0319831681179093556040519116919082907f8be0079c531659141344cd1fd0a4f28419497f9722a3daafe3b4186f6b6457e090600090a35050565b634e487b7160e01b600052604160045260246000fd5b600181811c908216806200012457607f821691505b6020821081036200014557634e487b7160e01b600052602260045260246000fd5b50919050565b601f8211156200019957600081815260208120601f850160051c81016020861015620001745750805b601f850160051c820191505b81811015620001955782815560010162000180565b5050505b505050565b81516001600160401b03811115620001ba57620001ba620000f9565b620001d281620001cb84546200010f565b846200014b565b602080601f8311600181146200020a5760008415620001f15750858301515b600019600386901b1c1916600185901b17855562000195565b600085815260208120601f198616915b828110156200023b578886015182559484019460019091019084016200021a565b50858210156200025a5787850151600019600388901b60f8161c191681555b5050505050600190811b01905550565b611e6b806200027a6000396000f3fe608060405234801561001057600080fd5b50600436106101375760003560e01c806370a08231116100b8578063b45a3c0e1161007c578063b45a3c0e14610271578063b88d4fde14610284578063c87b56dd14610297578063d204c45e146102aa578063e985e9c5146102bd578063f2fde38b146102f957600080fd5b806370a082311461022a578063715018a61461023d5780638da5cb5b1461024557806395d89b4114610256578063a22cb4651461025e57600080fd5b806323b872dd116100ff57806323b872dd146101cb5780632f745c59146101de57806342842e0e146101f15780634f6ccce7146102045780636352211e1461021757600080fd5b806301ffc9a71461013c57806306fdde0314610164578063081812fc14610179578063095ea7b3146101a457806318160ddd146101b9575b600080fd5b61014f61014a366004611824565b61030c565b60405190151581526020015b60405180910390f35b61016c61031d565b60405161015b9190611891565b61018c6101873660046118a4565b6103af565b6040516001600160a01b03909116815260200161015b565b6101b76101b23660046118d9565b6103d6565b005b6009545b60405190815260200161015b565b6101b76101d9366004611903565b610408565b6101bd6101ec3660046118d9565b61043c565b6101b76101ff366004611903565b6104d7565b6101bd6102123660046118a4565b610506565b61018c6102253660046118a4565b610599565b6101bd61023836600461193f565b6105f9565b6101b761067f565b600c546001600160a01b031661018c565b61016c610693565b6101b761026c36600461195a565b6106a2565b61014f61027f3660046118a4565b6106d0565b6101b7610292366004611a22565b610710565b61016c6102a53660046118a4565b610746565b6101b76102b8366004611a9e565b610751565b61014f6102cb366004611b00565b6001600160a01b03918216600090815260056020908152604080832093909416825291909152205460ff1690565b6101b761030736600461193f565b610788565b600061031782610801565b92915050565b60606000805461032c90611b33565b80601f016020809104026020016040519081016040528092919081815260200182805461035890611b33565b80156103a55780601f1061037a576101008083540402835291602001916103a5565b820191906000526020600020905b81548152906001019060200180831161038857829003601f168201915b5050505050905090565b60006103ba82610826565b506000908152600460205260409020546001600160a01b031690565b60065460ff16156103fa5760405163bd291a9560e01b815260040160405180910390fd5b6104048282610885565b5050565b60065460ff161561042c5760405163bd291a9560e01b815260040160405180910390fd5b610437838383610995565b505050565b6000610447836105f9565b82106104ae5760405162461bcd60e51b815260206004820152602b60248201527f455243373231456e756d657261626c653a206f776e657220696e646578206f7560448201526a74206f6620626f756e647360a81b60648201526084015b60405180910390fd5b506001600160a01b03919091166000908152600760209081526040808320938352929052205490565b60065460ff16156104fb5760405163bd291a9560e01b815260040160405180910390fd5b6104378383836109c6565b600061051160095490565b82106105745760405162461bcd60e51b815260206004820152602c60248201527f455243373231456e756d657261626c653a20676c6f62616c20696e646578206f60448201526b7574206f6620626f756e647360a01b60648201526084016104a5565b6009828154811061058757610587611b6d565b90600052602060002001549050919050565b6000818152600260205260408120546001600160a01b0316806103175760405162461bcd60e51b8152602060048201526018602482015277115490cdcc8c4e881a5b9d985b1a59081d1bdad95b88125160421b60448201526064016104a5565b60006001600160a01b0382166106635760405162461bcd60e51b815260206004820152602960248201527f4552433732313a2061646472657373207a65726f206973206e6f7420612076616044820152683634b21037bbb732b960b91b60648201526084016104a5565b506001600160a01b031660009081526003602052604090205490565b6106876109e1565b6106916000610a3b565b565b60606001805461032c90611b33565b60065460ff16156106c65760405163bd291a9560e01b815260040160405180910390fd5b6104048282610a8d565b6000818152600260205260408120546001600160a01b03166107055760405163ae9a63f560e01b815260040160405180910390fd5b505060065460ff1690565b60065460ff16156107345760405163bd291a9560e01b815260040160405180910390fd5b61074084848484610a98565b50505050565b606061031782610aca565b6107596109e1565b6000610764600d5490565b9050610774600d80546001019055565b61077e8382610bda565b6104378183610bf4565b6107906109e1565b6001600160a01b0381166107f55760405162461bcd60e51b815260206004820152602660248201527f4f776e61626c653a206e6577206f776e657220697320746865207a65726f206160448201526564647265737360d01b60648201526084016104a5565b6107fe81610a3b565b50565b60006001600160e01b03198216632483248360e11b1480610317575061031782610cbf565b6000818152600260205260409020546001600160a01b03166107fe5760405162461bcd60e51b8152602060048201526018602482015277115490cdcc8c4e881a5b9d985b1a59081d1bdad95b88125160421b60448201526064016104a5565b600061089082610599565b9050806001600160a01b0316836001600160a01b0316036108fd5760405162461bcd60e51b815260206004820152602160248201527f4552433732313a20617070726f76616c20746f2063757272656e74206f776e656044820152603960f91b60648201526084016104a5565b336001600160a01b0382161480610919575061091981336102cb565b61098b5760405162461bcd60e51b815260206004820152603d60248201527f4552433732313a20617070726f76652063616c6c6572206973206e6f7420746f60448201527f6b656e206f776e6572206f7220617070726f76656420666f7220616c6c00000060648201526084016104a5565b6104378383610ce4565b61099f3382610d52565b6109bb5760405162461bcd60e51b81526004016104a590611b83565b610437838383610dd0565b61043783838360405180602001604052806000815250610710565b600c546001600160a01b031633146106915760405162461bcd60e51b815260206004820181905260248201527f4f776e61626c653a2063616c6c6572206973206e6f7420746865206f776e657260448201526064016104a5565b600c80546001600160a01b038381166001600160a01b0319831681179093556040519116919082907f8be0079c531659141344cd1fd0a4f28419497f9722a3daafe3b4186f6b6457e090600090a35050565b610404338383610f41565b610aa23383610d52565b610abe5760405162461bcd60e51b81526004016104a590611b83565b6107408484848461100f565b6060610ad582610826565b6000828152600b602052604081208054610aee90611b33565b80601f0160208091040260200160405190810160405280929190818152602001828054610b1a90611b33565b8015610b675780601f10610b3c57610100808354040283529160200191610b67565b820191906000526020600020905b815481529060010190602001808311610b4a57829003601f168201915b505050505090506000610b8560408051602081019091526000815290565b90508051600003610b97575092915050565b815115610bc9578082604051602001610bb1929190611bd0565b60405160208183030381529060405292505050919050565b610bd284611042565b949350505050565b6104048282604051806020016040528060008152506110b6565b6000828152600260205260409020546001600160a01b0316610c6f5760405162461bcd60e51b815260206004820152602e60248201527f45524337323155524953746f726167653a2055524920736574206f66206e6f6e60448201526d32bc34b9ba32b73a103a37b5b2b760911b60648201526084016104a5565b6000828152600b60205260409020610c878282611c4d565b506040518281527ff8e1a15aba9398e019f0b49df1a4fde98ee17ae345cb5f6b5e2c27f5033e8ce79060200160405180910390a15050565b60006001600160e01b0319821663780e9d6360e01b14806103175750610317826110e9565b600081815260046020526040902080546001600160a01b0319166001600160a01b0384169081179091558190610d1982610599565b6001600160a01b03167f8c5be1e5ebec7d5bd14f71427d1e84f3dd0314c0f7b2291e5b200ac8c7c3b92560405160405180910390a45050565b600080610d5e83610599565b9050806001600160a01b0316846001600160a01b03161480610da557506001600160a01b0380821660009081526005602090815260408083209388168352929052205460ff165b80610bd25750836001600160a01b0316610dbe846103af565b6001600160a01b031614949350505050565b826001600160a01b0316610de382610599565b6001600160a01b031614610e095760405162461bcd60e51b81526004016104a590611d0d565b6001600160a01b038216610e6b5760405162461bcd60e51b8152602060048201526024808201527f4552433732313a207472616e7366657220746f20746865207a65726f206164646044820152637265737360e01b60648201526084016104a5565b610e788383836001611139565b826001600160a01b0316610e8b82610599565b6001600160a01b031614610eb15760405162461bcd60e51b81526004016104a590611d0d565b600081815260046020908152604080832080546001600160a01b03199081169091556001600160a01b0387811680865260038552838620805460001901905590871680865283862080546001019055868652600290945282852080549092168417909155905184937fddf252ad1be2c89b69c2b068fc378daa952ba7f163c4a11628f55a4df523b3ef91a4505050565b816001600160a01b0316836001600160a01b031603610fa25760405162461bcd60e51b815260206004820152601960248201527f4552433732313a20617070726f766520746f2063616c6c65720000000000000060448201526064016104a5565b6001600160a01b03838116600081815260056020908152604080832094871680845294825291829020805460ff191686151590811790915591519182527f17307eab39ab6107e8899845ad3d59bd9653f200f220920489ca2b5937696c31910160405180910390a3505050565b61101a848484610dd0565b61102684848484611145565b6107405760405162461bcd60e51b81526004016104a590611d52565b606061104d82610826565b600061106460408051602081019091526000815290565b9050600081511161108457604051806020016040528060008152506110af565b8061108e84611246565b60405160200161109f929190611bd0565b6040516020818303038152906040525b9392505050565b6110c083836112d9565b6110cd6000848484611145565b6104375760405162461bcd60e51b81526004016104a590611d52565b60006001600160e01b031982166380ac58cd60e01b148061111a57506001600160e01b03198216635b5e139f60e01b145b8061031757506301ffc9a760e01b6001600160e01b0319831614610317565b61074084848484611472565b60006001600160a01b0384163b1561123b57604051630a85bd0160e11b81526001600160a01b0385169063150b7a0290611189903390899088908890600401611da4565b6020604051808303816000875af19250505080156111c4575060408051601f3d908101601f191682019092526111c191810190611de1565b60015b611221573d8080156111f2576040519150601f19603f3d011682016040523d82523d6000602084013e6111f7565b606091505b5080516000036112195760405162461bcd60e51b81526004016104a590611d52565b805181602001fd5b6001600160e01b031916630a85bd0160e11b149050610bd2565b506001949350505050565b60606000611253836115a6565b600101905060008167ffffffffffffffff81111561127357611273611996565b6040519080825280601f01601f19166020018201604052801561129d576020820181803683370190505b5090508181016020015b600019016f181899199a1a9b1b9c1cb0b131b232b360811b600a86061a8153600a85049450846112a757509392505050565b6001600160a01b03821661132f5760405162461bcd60e51b815260206004820181905260248201527f4552433732313a206d696e7420746f20746865207a65726f206164647265737360448201526064016104a5565b6000818152600260205260409020546001600160a01b0316156113945760405162461bcd60e51b815260206004820152601c60248201527f4552433732313a20746f6b656e20616c7265616479206d696e7465640000000060448201526064016104a5565b6113a2600083836001611139565b6000818152600260205260409020546001600160a01b0316156114075760405162461bcd60e51b815260206004820152601c60248201527f4552433732313a20746f6b656e20616c7265616479206d696e7465640000000060448201526064016104a5565b6001600160a01b038216600081815260036020908152604080832080546001019055848352600290915280822080546001600160a01b0319168417905551839291907fddf252ad1be2c89b69c2b068fc378daa952ba7f163c4a11628f55a4df523b3ef908290a45050565b60018111156114e15760405162461bcd60e51b815260206004820152603560248201527f455243373231456e756d657261626c653a20636f6e7365637574697665207472604482015274185b9cd9995c9cc81b9bdd081cdd5c1c1bdc9d1959605a1b60648201526084016104a5565b816001600160a01b03851661153d5761153881600980546000838152600a60205260408120829055600182018355919091527f6e1540171b6c0c960b71a7020d9f60077f6af931a8bbf590da0223dacf75c7af0155565b611560565b836001600160a01b0316856001600160a01b03161461156057611560858261167e565b6001600160a01b03841661157c576115778161171b565b61159f565b846001600160a01b0316846001600160a01b03161461159f5761159f84826117ca565b5050505050565b60008072184f03e93ff9f4daa797ed6e38ed64bf6a1f0160401b83106115e55772184f03e93ff9f4daa797ed6e38ed64bf6a1f0160401b830492506040015b6d04ee2d6d415b85acef81000000008310611611576d04ee2d6d415b85acef8100000000830492506020015b662386f26fc10000831061162f57662386f26fc10000830492506010015b6305f5e1008310611647576305f5e100830492506008015b612710831061165b57612710830492506004015b6064831061166d576064830492506002015b600a83106103175760010192915050565b6000600161168b846105f9565b6116959190611dfe565b6000838152600860205260409020549091508082146116e8576001600160a01b03841660009081526007602090815260408083208584528252808320548484528184208190558352600890915290208190555b5060009182526008602090815260408084208490556001600160a01b039094168352600781528383209183525290812055565b60095460009061172d90600190611dfe565b6000838152600a60205260408120546009805493945090928490811061175557611755611b6d565b90600052602060002001549050806009838154811061177657611776611b6d565b6000918252602080832090910192909255828152600a909152604080822084905585825281205560098054806117ae576117ae611e1f565b6001900381819060005260206000200160009055905550505050565b60006117d5836105f9565b6001600160a01b039093166000908152600760209081526040808320868452825280832085905593825260089052919091209190915550565b6001600160e01b0319811681146107fe57600080fd5b60006020828403121561183657600080fd5b81356110af8161180e565b60005b8381101561185c578181015183820152602001611844565b50506000910152565b6000815180845261187d816020860160208601611841565b601f01601f19169290920160200192915050565b6020815260006110af6020830184611865565b6000602082840312156118b657600080fd5b5035919050565b80356001600160a01b03811681146118d457600080fd5b919050565b600080604083850312156118ec57600080fd5b6118f5836118bd565b946020939093013593505050565b60008060006060848603121561191857600080fd5b611921846118bd565b925061192f602085016118bd565b9150604084013590509250925092565b60006020828403121561195157600080fd5b6110af826118bd565b6000806040838503121561196d57600080fd5b611976836118bd565b91506020830135801515811461198b57600080fd5b809150509250929050565b634e487b7160e01b600052604160045260246000fd5b600067ffffffffffffffff808411156119c7576119c7611996565b604051601f8501601f19908116603f011681019082821181831017156119ef576119ef611996565b81604052809350858152868686011115611a0857600080fd5b858560208301376000602087830101525050509392505050565b60008060008060808587031215611a3857600080fd5b611a41856118bd565b9350611a4f602086016118bd565b925060408501359150606085013567ffffffffffffffff811115611a7257600080fd5b8501601f81018713611a8357600080fd5b611a92878235602084016119ac565b91505092959194509250565b60008060408385031215611ab157600080fd5b611aba836118bd565b9150602083013567ffffffffffffffff811115611ad657600080fd5b8301601f81018513611ae757600080fd5b611af6858235602084016119ac565b9150509250929050565b60008060408385031215611b1357600080fd5b611b1c836118bd565b9150611b2a602084016118bd565b90509250929050565b600181811c90821680611b4757607f821691505b602082108103611b6757634e487b7160e01b600052602260045260246000fd5b50919050565b634e487b7160e01b600052603260045260246000fd5b6020808252602d908201527f4552433732313a2063616c6c6572206973206e6f7420746f6b656e206f776e6560408201526c1c881bdc88185c1c1c9bdd9959609a1b606082015260800190565b60008351611be2818460208801611841565b835190830190611bf6818360208801611841565b01949350505050565b601f82111561043757600081815260208120601f850160051c81016020861015611c265750805b601f850160051c820191505b81811015611c4557828155600101611c32565b505050505050565b815167ffffffffffffffff811115611c6757611c67611996565b611c7b81611c758454611b33565b84611bff565b602080601f831160018114611cb05760008415611c985750858301515b600019600386901b1c1916600185901b178555611c45565b600085815260208120601f198616915b82811015611cdf57888601518255948401946001909101908401611cc0565b5085821015611cfd5787850151600019600388901b60f8161c191681555b5050505050600190811b01905550565b60208082526025908201527f4552433732313a207472616e736665722066726f6d20696e636f72726563742060408201526437bbb732b960d91b606082015260800190565b60208082526032908201527f4552433732313a207472616e7366657220746f206e6f6e20455243373231526560408201527131b2b4bb32b91034b6b83632b6b2b73a32b960711b606082015260800190565b6001600160a01b0385811682528416602082015260408101839052608060608201819052600090611dd790830184611865565b9695505050505050565b600060208284031215611df357600080fd5b81516110af8161180e565b8181038181111561031757634e487b7160e01b600052601160045260246000fd5b634e487b7160e01b600052603160045260246000fdfea2646970667358221220448769e5baf50affaa88b6618d6c44e20272fbf524d9d0355a53571bc68c9a6464736f6c63430008120033",
  "linkReferences": {},
  "deployedLinkReferences": {}
}