{
  "_format": "hh-sol-artifact-1",
  "contractName": "Treasury",
  "sourceName": "contracts/Treasury.sol",
  "abi": [
    {
      "inputs": [],
      "stateMutability": "nonpayable",
      "type": "constructor"
    },
    {
      "anonymous": false,
      "inputs": [
        {
          "indexed": false,
          "internalType": "address",
          "name": "previousAdmin",
          "type": "address"
        },
        {
          "indexed": false,
          "internalType": "address",
          "name": "newAdmin",
          "type": "address"
        }
      ],
      "name": "AdminChanged",
      "type": "event"
    },
    {
      "anonymous": false,
      "inputs": [
        {
          "indexed": true,
          "internalType": "address",
          "name": "beacon",
          "type": "address"
        }
      ],
      "name": "BeaconUpgraded",
      "type": "event"
    },
    {
      "anonymous": false,
      "inputs": [
        {
          "indexed": false,
          "internalType": "uint8",
          "name": "version",
          "type": "uint8"
        }
      ],
      "name": "Initialized",
      "type": "event"
    },
    {
      "anonymous": false,
      "inputs": [
        {
          "indexed": true,
          "internalType": "address",
          "name": "previousOwner",
          "type": "address"
        },
        {
          "indexed": true,
          "internalType": "address",
          "name": "newOwner",
          "type": "address"
        }
      ],
      "name": "OwnershipTransferred",
      "type": "event"
    },
    {
      "anonymous": false,
      "inputs": [
        {
          "indexed": true,
          "internalType": "address",
          "name": "implementation",
          "type": "address"
        }
      ],
      "name": "Upgraded",
      "type": "event"
    },
    {
      "inputs": [],
      "name": "getTotalAmount",
      "outputs": [
        {
          "internalType": "uint256",
          "name": "",
          "type": "uint256"
        }
      ],
      "stateMutability": "view",
      "type": "function"
    },
    {
      "inputs": [
        {
          "internalType": "address",
          "name": "_tokenAddress",
          "type": "address"
        }
      ],
      "name": "initialize",
      "outputs": [],
      "stateMutability": "nonpayable",
      "type": "function"
    },
    {
      "inputs": [],
      "name": "owner",
      "outputs": [
        {
          "internalType": "address",
          "name": "",
          "type": "address"
        }
      ],
      "stateMutability": "view",
      "type": "function"
    },
    {
      "inputs": [],
      "name": "proxiableUUID",
      "outputs": [
        {
          "internalType": "bytes32",
          "name": "",
          "type": "bytes32"
        }
      ],
      "stateMutability": "view",
      "type": "function"
    },
    {
      "inputs": [],
      "name": "renounceOwnership",
      "outputs": [],
      "stateMutability": "nonpayable",
      "type": "function"
    },
    {
      "inputs": [
        {
          "internalType": "address",
          "name": "newOwner",
          "type": "address"
        }
      ],
      "name": "transferOwnership",
      "outputs": [],
      "stateMutability": "nonpayable",
      "type": "function"
    },
    {
      "inputs": [
        {
          "internalType": "address",
          "name": "newImplementation",
          "type": "address"
        }
      ],
      "name": "upgradeTo",
      "outputs": [],
      "stateMutability": "nonpayable",
      "type": "function"
    },
    {
      "inputs": [
        {
          "internalType": "address",
          "name": "newImplementation",
          "type": "address"
        },
        {
          "internalType": "bytes",
          "name": "data",
          "type": "bytes"
        }
      ],
      "name": "upgradeToAndCall",
      "outputs": [],
      "stateMutability": "payable",
      "type": "function"
    },
    {
      "inputs": [
        {
          "internalType": "address",
          "name": "to",
          "type": "address"
        },
        {
          "internalType": "uint256",
          "name": "amount",
          "type": "uint256"
        }
      ],
      "name": "withdraw",
      "outputs": [],
      "stateMutability": "nonpayable",
      "type": "function"
    }
  ],
  "bytecode": "0x60a06040523060805234801561001457600080fd5b5061001d610022565b6100e1565b600054610100900460ff161561008e5760405162461bcd60e51b815260206004820152602760248201527f496e697469616c697a61626c653a20636f6e747261637420697320696e697469604482015266616c697a696e6760c81b606482015260840160405180910390fd5b60005460ff908116146100df576000805460ff191660ff9081179091556040519081527f7f26b83ff96e1f2b6a682f133852f6798a09c465da95921460cefb38474024989060200160405180910390a15b565b608051610efb610118600039600081816101a4015281816101ed0152818161028c015281816102cc015261035f0152610efb6000f3fe6080604052600436106100865760003560e01c8063715018a611610059578063715018a6146100fd5780638da5cb5b14610112578063c4d66de81461013a578063f2fde38b1461015a578063f3fef3a31461017a57600080fd5b80633659cfe61461008b5780634f1ef286146100ad57806352d1902d146100c057806365ac4341146100e8575b600080fd5b34801561009757600080fd5b506100ab6100a6366004610bd0565b61019a565b005b6100ab6100bb366004610c01565b610282565b3480156100cc57600080fd5b506100d5610352565b6040519081526020015b60405180910390f35b3480156100f457600080fd5b506100d5610405565b34801561010957600080fd5b506100ab610477565b34801561011e57600080fd5b506033546040516001600160a01b0390911681526020016100df565b34801561014657600080fd5b506100ab610155366004610bd0565b61048b565b34801561016657600080fd5b506100ab610175366004610bd0565b6105bf565b34801561018657600080fd5b506100ab610195366004610cc3565b610635565b6001600160a01b037f00000000000000000000000000000000000000000000000000000000000000001630036101eb5760405162461bcd60e51b81526004016101e290610ced565b60405180910390fd5b7f00000000000000000000000000000000000000000000000000000000000000006001600160a01b0316610234600080516020610e7f833981519152546001600160a01b031690565b6001600160a01b03161461025a5760405162461bcd60e51b81526004016101e290610d39565b610263816106b9565b6040805160008082526020820190925261027f918391906106c1565b50565b6001600160a01b037f00000000000000000000000000000000000000000000000000000000000000001630036102ca5760405162461bcd60e51b81526004016101e290610ced565b7f00000000000000000000000000000000000000000000000000000000000000006001600160a01b0316610313600080516020610e7f833981519152546001600160a01b031690565b6001600160a01b0316146103395760405162461bcd60e51b81526004016101e290610d39565b610342826106b9565b61034e828260016106c1565b5050565b6000306001600160a01b037f000000000000000000000000000000000000000000000000000000000000000016146103f25760405162461bcd60e51b815260206004820152603860248201527f555550535570677261646561626c653a206d757374206e6f742062652063616c60448201527f6c6564207468726f7567682064656c656761746563616c6c000000000000000060648201526084016101e2565b50600080516020610e7f83398151915290565b60c9546040516370a0823160e01b81523060048201526000916001600160a01b0316906370a0823190602401602060405180830381865afa15801561044e573d6000803e3d6000fd5b505050506040513d601f19601f820116820180604052508101906104729190610d85565b905090565b61047f61082c565b6104896000610886565b565b600054610100900460ff16158080156104ab5750600054600160ff909116105b806104c55750303b1580156104c5575060005460ff166001145b6105285760405162461bcd60e51b815260206004820152602e60248201527f496e697469616c697a61626c653a20636f6e747261637420697320616c72656160448201526d191e481a5b9a5d1a585b1a5e995960921b60648201526084016101e2565b6000805460ff19166001179055801561054b576000805461ff0019166101001790555b6105536108d8565b61055b610907565b60c980546001600160a01b0319166001600160a01b038416179055801561034e576000805461ff0019169055604051600181527f7f26b83ff96e1f2b6a682f133852f6798a09c465da95921460cefb38474024989060200160405180910390a15050565b6105c761082c565b6001600160a01b03811661062c5760405162461bcd60e51b815260206004820152602660248201527f4f776e61626c653a206e6577206f776e657220697320746865207a65726f206160448201526564647265737360d01b60648201526084016101e2565b61027f81610886565b61063d61082c565b60c95460405163a9059cbb60e01b81526001600160a01b038481166004830152602482018490529091169063a9059cbb906044016020604051808303816000875af1158015610690573d6000803e3d6000fd5b505050506040513d601f19601f820116820180604052508101906106b49190610d9e565b505050565b61027f61082c565b7f4910fdfa16fed3260ed0e7147f7cc6da11a60208b5b9406d12a635614ffd91435460ff16156106f4576106b48361092e565b826001600160a01b03166352d1902d6040518163ffffffff1660e01b8152600401602060405180830381865afa92505050801561074e575060408051601f3d908101601f1916820190925261074b91810190610d85565b60015b6107b15760405162461bcd60e51b815260206004820152602e60248201527f45524331393637557067726164653a206e657720696d706c656d656e7461746960448201526d6f6e206973206e6f74205555505360901b60648201526084016101e2565b600080516020610e7f83398151915281146108205760405162461bcd60e51b815260206004820152602960248201527f45524331393637557067726164653a20756e737570706f727465642070726f786044820152681a58589b195555525160ba1b60648201526084016101e2565b506106b48383836109ca565b6033546001600160a01b031633146104895760405162461bcd60e51b815260206004820181905260248201527f4f776e61626c653a2063616c6c6572206973206e6f7420746865206f776e657260448201526064016101e2565b603380546001600160a01b038381166001600160a01b0319831681179093556040519116919082907f8be0079c531659141344cd1fd0a4f28419497f9722a3daafe3b4186f6b6457e090600090a35050565b600054610100900460ff166108ff5760405162461bcd60e51b81526004016101e290610dc0565b6104896109f5565b600054610100900460ff166104895760405162461bcd60e51b81526004016101e290610dc0565b6001600160a01b0381163b61099b5760405162461bcd60e51b815260206004820152602d60248201527f455243313936373a206e657720696d706c656d656e746174696f6e206973206e60448201526c1bdd08184818dbdb9d1c9858dd609a1b60648201526084016101e2565b600080516020610e7f83398151915280546001600160a01b0319166001600160a01b0392909216919091179055565b6109d383610a25565b6000825111806109e05750805b156106b4576109ef8383610a65565b50505050565b600054610100900460ff16610a1c5760405162461bcd60e51b81526004016101e290610dc0565b61048933610886565b610a2e8161092e565b6040516001600160a01b038216907fbc7cd75a20ee27fd9adebab32041f755214dbc6bffa90cc0225b39da2e5c2d3b90600090a250565b6060610a8a8383604051806060016040528060278152602001610e9f60279139610a91565b9392505050565b6060600080856001600160a01b031685604051610aae9190610e2f565b600060405180830381855af49150503d8060008114610ae9576040519150601f19603f3d011682016040523d82523d6000602084013e610aee565b606091505b5091509150610aff86838387610b09565b9695505050505050565b60608315610b78578251600003610b71576001600160a01b0385163b610b715760405162461bcd60e51b815260206004820152601d60248201527f416464726573733a2063616c6c20746f206e6f6e2d636f6e747261637400000060448201526064016101e2565b5081610b82565b610b828383610b8a565b949350505050565b815115610b9a5781518083602001fd5b8060405162461bcd60e51b81526004016101e29190610e4b565b80356001600160a01b0381168114610bcb57600080fd5b919050565b600060208284031215610be257600080fd5b610a8a82610bb4565b634e487b7160e01b600052604160045260246000fd5b60008060408385031215610c1457600080fd5b610c1d83610bb4565b9150602083013567ffffffffffffffff80821115610c3a57600080fd5b818501915085601f830112610c4e57600080fd5b813581811115610c6057610c60610beb565b604051601f8201601f19908116603f01168101908382118183101715610c8857610c88610beb565b81604052828152886020848701011115610ca157600080fd5b8260208601602083013760006020848301015280955050505050509250929050565b60008060408385031215610cd657600080fd5b610cdf83610bb4565b946020939093013593505050565b6020808252602c908201527f46756e6374696f6e206d7573742062652063616c6c6564207468726f7567682060408201526b19195b1959d85d1958d85b1b60a21b606082015260800190565b6020808252602c908201527f46756e6374696f6e206d7573742062652063616c6c6564207468726f7567682060408201526b6163746976652070726f787960a01b606082015260800190565b600060208284031215610d9757600080fd5b5051919050565b600060208284031215610db057600080fd5b81518015158114610a8a57600080fd5b6020808252602b908201527f496e697469616c697a61626c653a20636f6e7472616374206973206e6f74206960408201526a6e697469616c697a696e6760a81b606082015260800190565b60005b83811015610e26578181015183820152602001610e0e565b50506000910152565b60008251610e41818460208701610e0b565b9190910192915050565b6020815260008251806020840152610e6a816040850160208701610e0b565b601f01601f1916919091016040019291505056fe360894a13ba1a3210667c828492db98dca3e2076cc3735a920a3ca505d382bbc416464726573733a206c6f772d6c6576656c2064656c65676174652063616c6c206661696c6564a2646970667358221220aea3809b06019eaadef614acfcf0d44b38a5b206492ec824ca17d5c97d35283464736f6c63430008120033",
  "linkReferences": {},
  "deployedLinkReferences": {}
}