{
  "_format": "hh-sol-artifact-1",
  "contractName": "SBT",
  "sourceName": "contracts/SBT/SBT.sol",
  "abi": [
    {
      "inputs": [
        {
          "internalType": "address",
          "name": "_SBTMinterContract",
          "type": "address"
        }
      ],
      "stateMutability": "nonpayable",
      "type": "constructor"
    },
    {
      "inputs": [],
      "name": "ErrLocked",
      "type": "error"
    },
    {
      "inputs": [],
      "name": "ErrNotFound",
      "type": "error"
    },
    {
      "anonymous": false,
      "inputs": [
        {
          "indexed": true,
          "internalType": "address",
          "name": "owner",
          "type": "address"
        },
        {
          "indexed": true,
          "internalType": "address",
          "name": "approved",
          "type": "address"
        },
        {
          "indexed": true,
          "internalType": "uint256",
          "name": "tokenId",
          "type": "uint256"
        }
      ],
      "name": "Approval",
      "type": "event"
    },
    {
      "anonymous": false,
      "inputs": [
        {
          "indexed": true,
          "internalType": "address",
          "name": "owner",
          "type": "address"
        },
        {
          "indexed": true,
          "internalType": "address",
          "name": "operator",
          "type": "address"
        },
        {
          "indexed": false,
          "internalType": "bool",
          "name": "approved",
          "type": "bool"
        }
      ],
      "name": "ApprovalForAll",
      "type": "event"
    },
    {
      "anonymous": false,
      "inputs": [
        {
          "indexed": false,
          "internalType": "uint256",
          "name": "_fromTokenId",
          "type": "uint256"
        },
        {
          "indexed": false,
          "internalType": "uint256",
          "name": "_toTokenId",
          "type": "uint256"
        }
      ],
      "name": "BatchMetadataUpdate",
      "type": "event"
    },
    {
      "anonymous": false,
      "inputs": [
        {
          "indexed": true,
          "internalType": "address",
          "name": "from",
          "type": "address"
        },
        {
          "indexed": true,
          "internalType": "address",
          "name": "to",
          "type": "address"
        },
        {
          "indexed": true,
          "internalType": "uint256",
          "name": "tokenId",
          "type": "uint256"
        },
        {
          "indexed": false,
          "internalType": "enum IERC5484BurnAuth.BurnAuth",
          "name": "burnAuth",
          "type": "uint8"
        }
      ],
      "name": "Issued",
      "type": "event"
    },
    {
      "anonymous": false,
      "inputs": [
        {
          "indexed": false,
          "internalType": "uint256",
          "name": "tokenId",
          "type": "uint256"
        }
      ],
      "name": "Locked",
      "type": "event"
    },
    {
      "anonymous": false,
      "inputs": [
        {
          "indexed": false,
          "internalType": "uint256",
          "name": "_tokenId",
          "type": "uint256"
        }
      ],
      "name": "MetadataUpdate",
      "type": "event"
    },
    {
      "anonymous": false,
      "inputs": [
        {
          "indexed": true,
          "internalType": "address",
          "name": "from",
          "type": "address"
        },
        {
          "indexed": true,
          "internalType": "address",
          "name": "to",
          "type": "address"
        },
        {
          "indexed": true,
          "internalType": "uint256",
          "name": "tokenId",
          "type": "uint256"
        }
      ],
      "name": "Transfer",
      "type": "event"
    },
    {
      "anonymous": false,
      "inputs": [
        {
          "indexed": false,
          "internalType": "uint256",
          "name": "tokenId",
          "type": "uint256"
        }
      ],
      "name": "Unlocked",
      "type": "event"
    },
    {
      "inputs": [
        {
          "internalType": "address",
          "name": "approved",
          "type": "address"
        },
        {
          "internalType": "uint256",
          "name": "tokenId",
          "type": "uint256"
        }
      ],
      "name": "approve",
      "outputs": [],
      "stateMutability": "nonpayable",
      "type": "function"
    },
    {
      "inputs": [
        {
          "internalType": "address",
          "name": "owner",
          "type": "address"
        }
      ],
      "name": "balanceOf",
      "outputs": [
        {
          "internalType": "uint256",
          "name": "",
          "type": "uint256"
        }
      ],
      "stateMutability": "view",
      "type": "function"
    },
    {
      "inputs": [
        {
          "internalType": "uint256",
          "name": "tokenId",
          "type": "uint256"
        }
      ],
      "name": "burn",
      "outputs": [],
      "stateMutability": "nonpayable",
      "type": "function"
    },
    {
      "inputs": [
        {
          "internalType": "uint256",
          "name": "tokenId",
          "type": "uint256"
        }
      ],
      "name": "burnAuth",
      "outputs": [
        {
          "internalType": "enum IERC5484BurnAuth.BurnAuth",
          "name": "",
          "type": "uint8"
        }
      ],
      "stateMutability": "view",
      "type": "function"
    },
    {
      "inputs": [
        {
          "internalType": "uint256",
          "name": "tokenId",
          "type": "uint256"
        }
      ],
      "name": "getApproved",
      "outputs": [
        {
          "internalType": "address",
          "name": "",
          "type": "address"
        }
      ],
      "stateMutability": "view",
      "type": "function"
    },
    {
      "inputs": [
        {
          "internalType": "address",
          "name": "owner",
          "type": "address"
        },
        {
          "internalType": "address",
          "name": "operator",
          "type": "address"
        }
      ],
      "name": "isApprovedForAll",
      "outputs": [
        {
          "internalType": "bool",
          "name": "",
          "type": "bool"
        }
      ],
      "stateMutability": "view",
      "type": "function"
    },
    {
      "inputs": [
        {
          "internalType": "uint256",
          "name": "tokenId",
          "type": "uint256"
        }
      ],
      "name": "locked",
      "outputs": [
        {
          "internalType": "bool",
          "name": "",
          "type": "bool"
        }
      ],
      "stateMutability": "view",
      "type": "function"
    },
    {
      "inputs": [],
      "name": "name",
      "outputs": [
        {
          "internalType": "string",
          "name": "",
          "type": "string"
        }
      ],
      "stateMutability": "view",
      "type": "function"
    },
    {
      "inputs": [
        {
          "internalType": "uint256",
          "name": "tokenId",
          "type": "uint256"
        }
      ],
      "name": "ownerOf",
      "outputs": [
        {
          "internalType": "address",
          "name": "",
          "type": "address"
        }
      ],
      "stateMutability": "view",
      "type": "function"
    },
    {
      "inputs": [
        {
          "internalType": "address",
          "name": "to",
          "type": "address"
        },
        {
          "internalType": "string",
          "name": "uri",
          "type": "string"
        }
      ],
      "name": "safeMint",
      "outputs": [],
      "stateMutability": "nonpayable",
      "type": "function"
    },
    {
      "inputs": [
        {
          "internalType": "address",
          "name": "from",
          "type": "address"
        },
        {
          "internalType": "address",
          "name": "to",
          "type": "address"
        },
        {
          "internalType": "uint256",
          "name": "tokenId",
          "type": "uint256"
        }
      ],
      "name": "safeTransferFrom",
      "outputs": [],
      "stateMutability": "nonpayable",
      "type": "function"
    },
    {
      "inputs": [
        {
          "internalType": "address",
          "name": "from",
          "type": "address"
        },
        {
          "internalType": "address",
          "name": "to",
          "type": "address"
        },
        {
          "internalType": "uint256",
          "name": "tokenId",
          "type": "uint256"
        },
        {
          "internalType": "bytes",
          "name": "data",
          "type": "bytes"
        }
      ],
      "name": "safeTransferFrom",
      "outputs": [],
      "stateMutability": "nonpayable",
      "type": "function"
    },
    {
      "inputs": [
        {
          "internalType": "address",
          "name": "operator",
          "type": "address"
        },
        {
          "internalType": "bool",
          "name": "approved",
          "type": "bool"
        }
      ],
      "name": "setApprovalForAll",
      "outputs": [],
      "stateMutability": "nonpayable",
      "type": "function"
    },
    {
      "inputs": [
        {
          "internalType": "uint256",
          "name": "_tokenId",
          "type": "uint256"
        },
        {
          "internalType": "string",
          "name": "_tokenURI",
          "type": "string"
        }
      ],
      "name": "setTokenURI",
      "outputs": [],
      "stateMutability": "nonpayable",
      "type": "function"
    },
    {
      "inputs": [
        {
          "internalType": "bytes4",
          "name": "interfaceId",
          "type": "bytes4"
        }
      ],
      "name": "supportsInterface",
      "outputs": [
        {
          "internalType": "bool",
          "name": "",
          "type": "bool"
        }
      ],
      "stateMutability": "view",
      "type": "function"
    },
    {
      "inputs": [],
      "name": "symbol",
      "outputs": [
        {
          "internalType": "string",
          "name": "",
          "type": "string"
        }
      ],
      "stateMutability": "view",
      "type": "function"
    },
    {
      "inputs": [
        {
          "internalType": "uint256",
          "name": "index",
          "type": "uint256"
        }
      ],
      "name": "tokenByIndex",
      "outputs": [
        {
          "internalType": "uint256",
          "name": "",
          "type": "uint256"
        }
      ],
      "stateMutability": "view",
      "type": "function"
    },
    {
      "inputs": [
        {
          "internalType": "address",
          "name": "owner",
          "type": "address"
        },
        {
          "internalType": "uint256",
          "name": "index",
          "type": "uint256"
        }
      ],
      "name": "tokenOfOwnerByIndex",
      "outputs": [
        {
          "internalType": "uint256",
          "name": "",
          "type": "uint256"
        }
      ],
      "stateMutability": "view",
      "type": "function"
    },
    {
      "inputs": [
        {
          "internalType": "uint256",
          "name": "tokenId",
          "type": "uint256"
        }
      ],
      "name": "tokenURI",
      "outputs": [
        {
          "internalType": "string",
          "name": "",
          "type": "string"
        }
      ],
      "stateMutability": "view",
      "type": "function"
    },
    {
      "inputs": [],
      "name": "totalSupply",
      "outputs": [
        {
          "internalType": "uint256",
          "name": "",
          "type": "uint256"
        }
      ],
      "stateMutability": "view",
      "type": "function"
    },
    {
      "inputs": [
        {
          "internalType": "address",
          "name": "from",
          "type": "address"
        },
        {
          "internalType": "address",
          "name": "to",
          "type": "address"
        },
        {
          "internalType": "uint256",
          "name": "tokenId",
          "type": "uint256"
        }
      ],
      "name": "transferFrom",
      "outputs": [],
      "stateMutability": "nonpayable",
      "type": "function"
    }
  ],
  "bytecode": "0x60a06040523480156200001157600080fd5b50604051620025f9380380620025f98339810160408190526200003491620000ab565b60408051808201825260038082526214d09560ea1b60208084018290528451808601909552918452908301529060018282600062000073838262000182565b50600162000082828262000182565b50506006805460ff1916921515929092179091555050506001600160a01b03166080526200024e565b600060208284031215620000be57600080fd5b81516001600160a01b0381168114620000d657600080fd5b9392505050565b634e487b7160e01b600052604160045260246000fd5b600181811c908216806200010857607f821691505b6020821081036200012957634e487b7160e01b600052602260045260246000fd5b50919050565b601f8211156200017d57600081815260208120601f850160051c81016020861015620001585750805b601f850160051c820191505b81811015620001795782815560010162000164565b5050505b505050565b81516001600160401b038111156200019e576200019e620000dd565b620001b681620001af8454620000f3565b846200012f565b602080601f831160018114620001ee5760008415620001d55750858301515b600019600386901b1c1916600185901b17855562000179565b600085815260208120601f198616915b828110156200021f57888601518255948401946001909101908401620001fe565b50858210156200023e5787850151600019600388901b60f8161c191681555b5050505050600190811b01905550565b60805161237a6200027f6000396000818161043d0152818161061b0152818161076b0152610aa0015261237a6000f3fe608060405234801561001057600080fd5b50600436106101375760003560e01c806342966c68116100b8578063a22cb4651161007c578063a22cb4651461029b578063b45a3c0e146102ae578063b88d4fde146102c1578063c87b56dd146102d4578063d204c45e146102e7578063e985e9c5146102fa57600080fd5b806342966c68146102475780634f6ccce71461025a5780636352211e1461026d57806370a082311461028057806395d89b411461029357600080fd5b8063162094c4116100ff578063162094c4146101e957806318160ddd146101fc57806323b872dd1461020e5780632f745c591461022157806342842e0e1461023457600080fd5b806301ffc9a71461013c5780630489b56f1461016457806306fdde0314610194578063081812fc146101a9578063095ea7b3146101d4575b600080fd5b61014f61014a366004611c79565b610336565b60405190151581526020015b60405180910390f35b610187610172366004611c96565b60009081526007602052604090205460ff1690565b60405161015b9190611cc5565b61019c610347565b60405161015b9190611d3d565b6101bc6101b7366004611c96565b6103d9565b6040516001600160a01b03909116815260200161015b565b6101e76101e2366004611d6c565b610400565b005b6101e76101f7366004611d96565b610432565b600a545b60405190815260200161015b565b6101e761021c366004611e12565b6104ee565b61020061022f366004611d6c565b61051d565b6101e7610242366004611e12565b6105b3565b6101e7610255366004611c96565b6105e2565b610200610268366004611c96565b61085e565b6101bc61027b366004611c96565b6108f1565b61020061028e366004611e4e565b610951565b61019c6109d7565b6101e76102a9366004611e69565b6109e6565b61014f6102bc366004611c96565b610a14565b6101e76102cf366004611f31565b610a54565b61019c6102e2366004611c96565b610a8a565b6101e76102f5366004611fad565b610a95565b61014f61030836600461200f565b6001600160a01b03918216600090815260056020908152604080832093909416825291909152205460ff1690565b600061034182610b43565b92915050565b60606000805461035690612042565b80601f016020809104026020016040519081016040528092919081815260200182805461038290612042565b80156103cf5780601f106103a4576101008083540402835291602001916103cf565b820191906000526020600020905b8154815290600101906020018083116103b257829003601f168201915b5050505050905090565b60006103e482610b68565b506000908152600460205260409020546001600160a01b031690565b60065460ff16156104245760405163bd291a9560e01b815260040160405180910390fd5b61042e8282610bca565b5050565b336001600160a01b037f000000000000000000000000000000000000000000000000000000000000000016146104a95760405162461bcd60e51b815260206004820152601760248201527613db9b1e4814d095135a5b9d195c8818d85b8810d85b1b604a1b60448201526064015b60405180910390fd5b6104e98383838080601f016020809104026020016040519081016040528093929190818152602001838380828437600092019190915250610cda92505050565b505050565b60065460ff16156105125760405163bd291a9560e01b815260040160405180910390fd5b6104e9838383610da5565b600061052883610951565b821061058a5760405162461bcd60e51b815260206004820152602b60248201527f455243373231456e756d657261626c653a206f776e657220696e646578206f7560448201526a74206f6620626f756e647360a81b60648201526084016104a0565b506001600160a01b03919091166000908152600860209081526040808320938352929052205490565b60065460ff16156105d75760405163bd291a9560e01b815260040160405180910390fd5b6104e9838383610dd6565b600081815260076020526040812054829160ff9091169081600381111561060b5761060b611caf565b0361069857336001600160a01b037f000000000000000000000000000000000000000000000000000000000000000016146106935760405162461bcd60e51b815260206004820152602260248201527f45524335343834203a204f6e6c79204973737565722063616e206275726e2053604482015261109560f21b60648201526084016104a0565b610855565b60018160038111156106ac576106ac611caf565b03610727576000828152600260205260409020546001600160a01b031633146106935760405162461bcd60e51b815260206004820152602760248201527f45524335343834203a204f6e6c7920546f6b656e206f776e65722063616e20626044820152661d5c9b8814d09560ca1b60648201526084016104a0565b600281600381111561073b5761073b611caf565b036107f4576000828152600260205260409020546001600160a01b031633148061078d5750336001600160a01b037f000000000000000000000000000000000000000000000000000000000000000016145b6106935760405162461bcd60e51b815260206004820152603260248201527f45524335343834203a204f6e6c7920546f6b656e206f776e657220616e6420496044820152711cdcdd595c8818d85b88189d5c9b8814d09560721b60648201526084016104a0565b600381600381111561080857610808611caf565b036108555760405162461bcd60e51b815260206004820152601760248201527f45524335343834203a2043616e74206275726e2053425400000000000000000060448201526064016104a0565b6104e983610df1565b6000610869600a5490565b82106108cc5760405162461bcd60e51b815260206004820152602c60248201527f455243373231456e756d657261626c653a20676c6f62616c20696e646578206f60448201526b7574206f6620626f756e647360a01b60648201526084016104a0565b600a82815481106108df576108df61207c565b90600052602060002001549050919050565b6000818152600260205260408120546001600160a01b0316806103415760405162461bcd60e51b8152602060048201526018602482015277115490cdcc8c4e881a5b9d985b1a59081d1bdad95b88125160421b60448201526064016104a0565b60006001600160a01b0382166109bb5760405162461bcd60e51b815260206004820152602960248201527f4552433732313a2061646472657373207a65726f206973206e6f7420612076616044820152683634b21037bbb732b960b91b60648201526084016104a0565b506001600160a01b031660009081526003602052604090205490565b60606001805461035690612042565b60065460ff1615610a0a5760405163bd291a9560e01b815260040160405180910390fd5b61042e8282610dfa565b6000818152600260205260408120546001600160a01b0316610a495760405163ae9a63f560e01b815260040160405180910390fd5b505060065460ff1690565b60065460ff1615610a785760405163bd291a9560e01b815260040160405180910390fd5b610a8484848484610e05565b50505050565b606061034182610e37565b336001600160a01b037f00000000000000000000000000000000000000000000000000000000000000001614610b075760405162461bcd60e51b815260206004820152601760248201527613db9b1e4814d095135a5b9d195c8818d85b8810d85b1b604a1b60448201526064016104a0565b6000610b12600d5490565b9050610b22600d80546001019055565b610b2c8382610f47565b610b368183610cda565b6104e93384836003610f61565b60006001600160e01b03198216632483248360e11b1480610341575061034182610fe3565b6000818152600260205260409020546001600160a01b0316610bc75760405162461bcd60e51b8152602060048201526018602482015277115490cdcc8c4e881a5b9d985b1a59081d1bdad95b88125160421b60448201526064016104a0565b50565b6000610bd5826108f1565b9050806001600160a01b0316836001600160a01b031603610c425760405162461bcd60e51b815260206004820152602160248201527f4552433732313a20617070726f76616c20746f2063757272656e74206f776e656044820152603960f91b60648201526084016104a0565b336001600160a01b0382161480610c5e5750610c5e8133610308565b610cd05760405162461bcd60e51b815260206004820152603d60248201527f4552433732313a20617070726f76652063616c6c6572206973206e6f7420746f60448201527f6b656e206f776e6572206f7220617070726f76656420666f7220616c6c00000060648201526084016104a0565b6104e98383611008565b6000828152600260205260409020546001600160a01b0316610d555760405162461bcd60e51b815260206004820152602e60248201527f45524337323155524953746f726167653a2055524920736574206f66206e6f6e60448201526d32bc34b9ba32b73a103a37b5b2b760911b60648201526084016104a0565b6000828152600c60205260409020610d6d82826120e0565b506040518281527ff8e1a15aba9398e019f0b49df1a4fde98ee17ae345cb5f6b5e2c27f5033e8ce79060200160405180910390a15050565b610daf3382611076565b610dcb5760405162461bcd60e51b81526004016104a0906121a0565b6104e98383836110f4565b6104e983838360405180602001604052806000815250610a54565b610bc781611265565b61042e3383836112a5565b610e0f3383611076565b610e2b5760405162461bcd60e51b81526004016104a0906121a0565b610a8484848484611373565b6060610e4282610b68565b6000828152600c602052604081208054610e5b90612042565b80601f0160208091040260200160405190810160405280929190818152602001828054610e8790612042565b8015610ed45780601f10610ea957610100808354040283529160200191610ed4565b820191906000526020600020905b815481529060010190602001808311610eb757829003601f168201915b505050505090506000610ef260408051602081019091526000815290565b90508051600003610f04575092915050565b815115610f36578082604051602001610f1e9291906121ed565b60405160208183030381529060405292505050919050565b610f3f846113a6565b949350505050565b61042e82826040518060200160405280600081525061141a565b6000828152600760205260409020805482919060ff19166001836003811115610f8c57610f8c611caf565b021790555081836001600160a01b0316856001600160a01b03167f135ffb3383e06280e062ac5095bbf8faa98517161e596a2536bd98a9a8b64a8884604051610fd59190611cc5565b60405180910390a450505050565b60006001600160e01b0319821663780e9d6360e01b148061034157506103418261144d565b600081815260046020526040902080546001600160a01b0319166001600160a01b038416908117909155819061103d826108f1565b6001600160a01b03167f8c5be1e5ebec7d5bd14f71427d1e84f3dd0314c0f7b2291e5b200ac8c7c3b92560405160405180910390a45050565b600080611082836108f1565b9050806001600160a01b0316846001600160a01b031614806110c957506001600160a01b0380821660009081526005602090815260408083209388168352929052205460ff165b80610f3f5750836001600160a01b03166110e2846103d9565b6001600160a01b031614949350505050565b826001600160a01b0316611107826108f1565b6001600160a01b03161461112d5760405162461bcd60e51b81526004016104a09061221c565b6001600160a01b03821661118f5760405162461bcd60e51b8152602060048201526024808201527f4552433732313a207472616e7366657220746f20746865207a65726f206164646044820152637265737360e01b60648201526084016104a0565b61119c838383600161149d565b826001600160a01b03166111af826108f1565b6001600160a01b0316146111d55760405162461bcd60e51b81526004016104a09061221c565b600081815260046020908152604080832080546001600160a01b03199081169091556001600160a01b0387811680865260038552838620805460001901905590871680865283862080546001019055868652600290945282852080549092168417909155905184937fddf252ad1be2c89b69c2b068fc378daa952ba7f163c4a11628f55a4df523b3ef91a4505050565b61126e816114a9565b6000818152600c60205260409020805461128790612042565b159050610bc7576000818152600c60205260408120610bc791611c15565b816001600160a01b0316836001600160a01b0316036113065760405162461bcd60e51b815260206004820152601960248201527f4552433732313a20617070726f766520746f2063616c6c65720000000000000060448201526064016104a0565b6001600160a01b03838116600081815260056020908152604080832094871680845294825291829020805460ff191686151590811790915591519182527f17307eab39ab6107e8899845ad3d59bd9653f200f220920489ca2b5937696c31910160405180910390a3505050565b61137e8484846110f4565b61138a8484848461154c565b610a845760405162461bcd60e51b81526004016104a090612261565b60606113b182610b68565b60006113c860408051602081019091526000815290565b905060008151116113e85760405180602001604052806000815250611413565b806113f28461164d565b6040516020016114039291906121ed565b6040516020818303038152906040525b9392505050565b61142483836116e0565b611431600084848461154c565b6104e95760405162461bcd60e51b81526004016104a090612261565b60006001600160e01b031982166380ac58cd60e01b148061147e57506001600160e01b03198216635b5e139f60e01b145b8061034157506301ffc9a760e01b6001600160e01b0319831614610341565b610a8484848484611879565b60006114b4826108f1565b90506114c481600084600161149d565b6114cd826108f1565b600083815260046020908152604080832080546001600160a01b03199081169091556001600160a01b0385168085526003845282852080546000190190558785526002909352818420805490911690555192935084927fddf252ad1be2c89b69c2b068fc378daa952ba7f163c4a11628f55a4df523b3ef908390a45050565b60006001600160a01b0384163b1561164257604051630a85bd0160e11b81526001600160a01b0385169063150b7a02906115909033908990889088906004016122b3565b6020604051808303816000875af19250505080156115cb575060408051601f3d908101601f191682019092526115c8918101906122f0565b60015b611628573d8080156115f9576040519150601f19603f3d011682016040523d82523d6000602084013e6115fe565b606091505b5080516000036116205760405162461bcd60e51b81526004016104a090612261565b805181602001fd5b6001600160e01b031916630a85bd0160e11b149050610f3f565b506001949350505050565b6060600061165a836119ad565b600101905060008167ffffffffffffffff81111561167a5761167a611ea5565b6040519080825280601f01601f1916602001820160405280156116a4576020820181803683370190505b5090508181016020015b600019016f181899199a1a9b1b9c1cb0b131b232b360811b600a86061a8153600a85049450846116ae57509392505050565b6001600160a01b0382166117365760405162461bcd60e51b815260206004820181905260248201527f4552433732313a206d696e7420746f20746865207a65726f206164647265737360448201526064016104a0565b6000818152600260205260409020546001600160a01b03161561179b5760405162461bcd60e51b815260206004820152601c60248201527f4552433732313a20746f6b656e20616c7265616479206d696e7465640000000060448201526064016104a0565b6117a960008383600161149d565b6000818152600260205260409020546001600160a01b03161561180e5760405162461bcd60e51b815260206004820152601c60248201527f4552433732313a20746f6b656e20616c7265616479206d696e7465640000000060448201526064016104a0565b6001600160a01b038216600081815260036020908152604080832080546001019055848352600290915280822080546001600160a01b0319168417905551839291907fddf252ad1be2c89b69c2b068fc378daa952ba7f163c4a11628f55a4df523b3ef908290a45050565b60018111156118e85760405162461bcd60e51b815260206004820152603560248201527f455243373231456e756d657261626c653a20636f6e7365637574697665207472604482015274185b9cd9995c9cc81b9bdd081cdd5c1c1bdc9d1959605a1b60648201526084016104a0565b816001600160a01b0385166119445761193f81600a80546000838152600b60205260408120829055600182018355919091527fc65a7bb8d6351c1cf70c95a316cc6a92839c986682d98bc35f958f4883f9d2a80155565b611967565b836001600160a01b0316856001600160a01b031614611967576119678582611a85565b6001600160a01b0384166119835761197e81611b22565b6119a6565b846001600160a01b0316846001600160a01b0316146119a6576119a68482611bd1565b5050505050565b60008072184f03e93ff9f4daa797ed6e38ed64bf6a1f0160401b83106119ec5772184f03e93ff9f4daa797ed6e38ed64bf6a1f0160401b830492506040015b6d04ee2d6d415b85acef81000000008310611a18576d04ee2d6d415b85acef8100000000830492506020015b662386f26fc100008310611a3657662386f26fc10000830492506010015b6305f5e1008310611a4e576305f5e100830492506008015b6127108310611a6257612710830492506004015b60648310611a74576064830492506002015b600a83106103415760010192915050565b60006001611a9284610951565b611a9c919061230d565b600083815260096020526040902054909150808214611aef576001600160a01b03841660009081526008602090815260408083208584528252808320548484528184208190558352600990915290208190555b5060009182526009602090815260408084208490556001600160a01b039094168352600881528383209183525290812055565b600a54600090611b349060019061230d565b6000838152600b6020526040812054600a8054939450909284908110611b5c57611b5c61207c565b9060005260206000200154905080600a8381548110611b7d57611b7d61207c565b6000918252602080832090910192909255828152600b9091526040808220849055858252812055600a805480611bb557611bb561232e565b6001900381819060005260206000200160009055905550505050565b6000611bdc83610951565b6001600160a01b039093166000908152600860209081526040808320868452825280832085905593825260099052919091209190915550565b508054611c2190612042565b6000825580601f10611c31575050565b601f016020900490600052602060002090810190610bc791905b80821115611c5f5760008155600101611c4b565b5090565b6001600160e01b031981168114610bc757600080fd5b600060208284031215611c8b57600080fd5b813561141381611c63565b600060208284031215611ca857600080fd5b5035919050565b634e487b7160e01b600052602160045260246000fd5b6020810160048310611ce757634e487b7160e01b600052602160045260246000fd5b91905290565b60005b83811015611d08578181015183820152602001611cf0565b50506000910152565b60008151808452611d29816020860160208601611ced565b601f01601f19169290920160200192915050565b6020815260006114136020830184611d11565b80356001600160a01b0381168114611d6757600080fd5b919050565b60008060408385031215611d7f57600080fd5b611d8883611d50565b946020939093013593505050565b600080600060408486031215611dab57600080fd5b83359250602084013567ffffffffffffffff80821115611dca57600080fd5b818601915086601f830112611dde57600080fd5b813581811115611ded57600080fd5b876020828501011115611dff57600080fd5b6020830194508093505050509250925092565b600080600060608486031215611e2757600080fd5b611e3084611d50565b9250611e3e60208501611d50565b9150604084013590509250925092565b600060208284031215611e6057600080fd5b61141382611d50565b60008060408385031215611e7c57600080fd5b611e8583611d50565b915060208301358015158114611e9a57600080fd5b809150509250929050565b634e487b7160e01b600052604160045260246000fd5b600067ffffffffffffffff80841115611ed657611ed6611ea5565b604051601f8501601f19908116603f01168101908282118183101715611efe57611efe611ea5565b81604052809350858152868686011115611f1757600080fd5b858560208301376000602087830101525050509392505050565b60008060008060808587031215611f4757600080fd5b611f5085611d50565b9350611f5e60208601611d50565b925060408501359150606085013567ffffffffffffffff811115611f8157600080fd5b8501601f81018713611f9257600080fd5b611fa187823560208401611ebb565b91505092959194509250565b60008060408385031215611fc057600080fd5b611fc983611d50565b9150602083013567ffffffffffffffff811115611fe557600080fd5b8301601f81018513611ff657600080fd5b61200585823560208401611ebb565b9150509250929050565b6000806040838503121561202257600080fd5b61202b83611d50565b915061203960208401611d50565b90509250929050565b600181811c9082168061205657607f821691505b60208210810361207657634e487b7160e01b600052602260045260246000fd5b50919050565b634e487b7160e01b600052603260045260246000fd5b601f8211156104e957600081815260208120601f850160051c810160208610156120b95750805b601f850160051c820191505b818110156120d8578281556001016120c5565b505050505050565b815167ffffffffffffffff8111156120fa576120fa611ea5565b61210e816121088454612042565b84612092565b602080601f831160018114612143576000841561212b5750858301515b600019600386901b1c1916600185901b1785556120d8565b600085815260208120601f198616915b8281101561217257888601518255948401946001909101908401612153565b50858210156121905787850151600019600388901b60f8161c191681555b5050505050600190811b01905550565b6020808252602d908201527f4552433732313a2063616c6c6572206973206e6f7420746f6b656e206f776e6560408201526c1c881bdc88185c1c1c9bdd9959609a1b606082015260800190565b600083516121ff818460208801611ced565b835190830190612213818360208801611ced565b01949350505050565b60208082526025908201527f4552433732313a207472616e736665722066726f6d20696e636f72726563742060408201526437bbb732b960d91b606082015260800190565b60208082526032908201527f4552433732313a207472616e7366657220746f206e6f6e20455243373231526560408201527131b2b4bb32b91034b6b83632b6b2b73a32b960711b606082015260800190565b6001600160a01b03858116825284166020820152604081018390526080606082018190526000906122e690830184611d11565b9695505050505050565b60006020828403121561230257600080fd5b815161141381611c63565b8181038181111561034157634e487b7160e01b600052601160045260246000fd5b634e487b7160e01b600052603160045260246000fdfea264697066735822122093a9836765faa0c67d527bc2665ef3adff2611c33b2179a6cc7adeb7ba47d70164736f6c63430008120033",
  "linkReferences": {},
  "deployedLinkReferences": {}
}