{
  "_format": "hh-sol-artifact-1",
  "contractName": "FxERC20ChildTunnel",
  "sourceName": "contracts/examples/erc20-transfer/FxERC20ChildTunnel.sol",
  "abi": [
    {
      "inputs": [
        {
          "internalType": "address",
          "name": "_fxChild",
          "type": "address"
        },
        {
          "internalType": "address",
          "name": "_tokenTemplate",
          "type": "address"
        }
      ],
      "stateMutability": "nonpayable",
      "type": "constructor"
    },
    {
      "anonymous": false,
      "inputs": [
        {
          "indexed": true,
          "internalType": "address",
          "name": "user",
          "type": "address"
        },
        {
          "indexed": true,
          "internalType": "uint256",
          "name": "amount",
          "type": "uint256"
        },
        {
          "indexed": true,
          "internalType": "uint256",
          "name": "nonce",
          "type": "uint256"
        }
      ],
      "name": "L2Deposited",
      "type": "event"
    },
    {
      "anonymous": false,
      "inputs": [
        {
          "indexed": false,
          "internalType": "bytes",
          "name": "message",
          "type": "bytes"
        }
      ],
      "name": "MessageSent",
      "type": "event"
    },
    {
      "anonymous": false,
      "inputs": [
        {
          "indexed": true,
          "internalType": "address",
          "name": "rootToken",
          "type": "address"
        },
        {
          "indexed": true,
          "internalType": "address",
          "name": "childToken",
          "type": "address"
        }
      ],
      "name": "TokenMapped",
      "type": "event"
    },
    {
      "inputs": [],
      "name": "DEPOSIT",
      "outputs": [
        {
          "internalType": "bytes32",
          "name": "",
          "type": "bytes32"
        }
      ],
      "stateMutability": "view",
      "type": "function"
    },
    {
      "inputs": [],
      "name": "MAP_TOKEN",
      "outputs": [
        {
          "internalType": "bytes32",
          "name": "",
          "type": "bytes32"
        }
      ],
      "stateMutability": "view",
      "type": "function"
    },
    {
      "inputs": [],
      "name": "PREFIX_SYMBOL",
      "outputs": [
        {
          "internalType": "string",
          "name": "",
          "type": "string"
        }
      ],
      "stateMutability": "view",
      "type": "function"
    },
    {
      "inputs": [],
      "name": "SUFFIX_NAME",
      "outputs": [
        {
          "internalType": "string",
          "name": "",
          "type": "string"
        }
      ],
      "stateMutability": "view",
      "type": "function"
    },
    {
      "inputs": [
        {
          "internalType": "bytes32",
          "name": "salt",
          "type": "bytes32"
        },
        {
          "internalType": "bytes32",
          "name": "bytecodeHash",
          "type": "bytes32"
        },
        {
          "internalType": "address",
          "name": "deployer",
          "type": "address"
        }
      ],
      "name": "computedCreate2Address",
      "outputs": [
        {
          "internalType": "address",
          "name": "",
          "type": "address"
        }
      ],
      "stateMutability": "pure",
      "type": "function"
    },
    {
      "inputs": [],
      "name": "fxChild",
      "outputs": [
        {
          "internalType": "address",
          "name": "",
          "type": "address"
        }
      ],
      "stateMutability": "view",
      "type": "function"
    },
    {
      "inputs": [],
      "name": "fxRootTunnel",
      "outputs": [
        {
          "internalType": "address",
          "name": "",
          "type": "address"
        }
      ],
      "stateMutability": "view",
      "type": "function"
    },
    {
      "inputs": [
        {
          "internalType": "uint256",
          "name": "stateId",
          "type": "uint256"
        },
        {
          "internalType": "address",
          "name": "rootMessageSender",
          "type": "address"
        },
        {
          "internalType": "bytes",
          "name": "data",
          "type": "bytes"
        }
      ],
      "name": "processMessageFromRoot",
      "outputs": [],
      "stateMutability": "nonpayable",
      "type": "function"
    },
    {
      "inputs": [
        {
          "internalType": "address",
          "name": "",
          "type": "address"
        }
      ],
      "name": "rootToChildToken",
      "outputs": [
        {
          "internalType": "address",
          "name": "",
          "type": "address"
        }
      ],
      "stateMutability": "view",
      "type": "function"
    },
    {
      "inputs": [
        {
          "internalType": "address",
          "name": "_fxRootTunnel",
          "type": "address"
        }
      ],
      "name": "setFxRootTunnel",
      "outputs": [],
      "stateMutability": "nonpayable",
      "type": "function"
    },
    {
      "inputs": [],
      "name": "tokenTemplate",
      "outputs": [
        {
          "internalType": "address",
          "name": "",
          "type": "address"
        }
      ],
      "stateMutability": "view",
      "type": "function"
    },
    {
      "inputs": [
        {
          "internalType": "address",
          "name": "childToken",
          "type": "address"
        },
        {
          "internalType": "uint256",
          "name": "amount",
          "type": "uint256"
        }
      ],
      "name": "withdraw",
      "outputs": [],
      "stateMutability": "nonpayable",
      "type": "function"
    },
    {
      "inputs": [
        {
          "internalType": "address",
          "name": "childToken",
          "type": "address"
        },
        {
          "internalType": "address",
          "name": "receiver",
          "type": "address"
        },
        {
          "internalType": "uint256",
          "name": "amount",
          "type": "uint256"
        }
      ],
      "name": "withdrawTo",
      "outputs": [],
      "stateMutability": "nonpayable",
      "type": "function"
    }
  ],
  "bytecode": "0x60a060405234801561001057600080fd5b506040516111ec3803806111ec83398101604081905261002f916100d7565b600080546001600160a01b0319166001600160a01b03848116919091179091558116608052610064813b63ffffffff16151590565b6100b45760405162461bcd60e51b815260206004820152601e60248201527f546f6b656e2074656d706c617465206973206e6f7420636f6e74726163740000604482015260640160405180910390fd5b505061010a565b80516001600160a01b03811681146100d257600080fd5b919050565b600080604083850312156100ea57600080fd5b6100f3836100bb565b9150610101602084016100bb565b90509250929050565b6080516110c161012b6000396000818160d9015261099801526110c16000f3fe608060405234801561001057600080fd5b50600436106100cf5760003560e01c8063886a69ba1161008c578063c3b35a7e11610066578063c3b35a7e1461025b578063d81c8e521461026e578063ea60c7c414610295578063f3fef3a3146102be57600080fd5b8063886a69ba146101fe57806388837094146102335780639a7c4b711461024857600080fd5b80630814d3dd146100d45780633740d5a01461011857806339c6c9e014610146578063450d11f01461016f5780637337957f146101825780637f1e9cb0146101eb575b600080fd5b6100fb7f000000000000000000000000000000000000000000000000000000000000000081565b6040516001600160a01b0390911681526020015b60405180910390f35b610139604051806040016040528060028152602001610ccf60f31b81525081565b60405161010f9190610c45565b6101396040518060400160405280600a8152602001692028465845524332302960b01b81525081565b6000546100fb906001600160a01b031681565b6100fb610190366004610c77565b604080516001600160f81b031960208083019190915260609390931b6bffffffffffffffffffffffff191660218201526035810194909452605580850193909352805180850390930183526075909301909252805191012090565b6001546100fb906001600160a01b031681565b6102257f2cef46a936bdc5b7e6e8c71aa04560c41cf7d88bb26901a7e7f4936ff02accad81565b60405190815260200161010f565b610246610241366004610cb0565b6102d1565b005b610246610256366004610ccd565b610364565b610246610269366004610d56565b61040f565b6102257f87a7811f4bfedea3d341ad165680ae306b01aaeacc205d227629cf157dd9f82181565b6100fb6102a3366004610cb0565b6002602052600090815260409020546001600160a01b031681565b6102466102cc366004610d97565b61041f565b6001546001600160a01b0316156103425760405162461bcd60e51b815260206004820152602a60248201527f4678426173654368696c6454756e6e656c3a20524f4f545f54554e4e454c5f4160448201526913149150511657d4d15560b21b60648201526084015b60405180910390fd5b600180546001600160a01b0319166001600160a01b0392909216919091179055565b6000546001600160a01b031633146103c85760405162461bcd60e51b815260206004820152602160248201527f4678426173654368696c6454756e6e656c3a20494e56414c49445f53454e44456044820152602960f91b6064820152608401610339565b610409848484848080601f01602080910402602001604051908101604052809392919081815260200183838082843760009201919091525061042e92505050565b50505050565b61041a838383610585565b505050565b61042a823383610585565b5050565b60015482906001600160a01b038083169116146104a15760405162461bcd60e51b815260206004820152602b60248201527f4678426173654368696c6454756e6e656c3a20494e56414c49445f53454e444560448201526a1497d19493d357d493d3d560aa1b6064820152608401610339565b600080838060200190518101906104b89190610e4d565b915091507f87a7811f4bfedea3d341ad165680ae306b01aaeacc205d227629cf157dd9f82182036104f1576104ec81610742565b61057d565b7f2cef46a936bdc5b7e6e8c71aa04560c41cf7d88bb26901a7e7f4936ff02accad820361052757610521816108b5565b5061057d565b60405162461bcd60e51b815260206004820152602560248201527f467845524332304368696c6454756e6e656c3a20494e56414c49445f53594e436044820152645f5459504560d81b6064820152608401610339565b505050505050565b60008390506000816001600160a01b0316630a8a49146040518163ffffffff1660e01b81526004016020604051808303816000875af11580156105cc573d6000803e3d6000fd5b505050506040513d601f19601f820116820180604052508101906105f09190610ea8565b90506001600160a01b0385161580159061061257506001600160a01b03811615155b801561063a57506001600160a01b038082166000908152600260205260409020548682169116145b6106925760405162461bcd60e51b815260206004820152602360248201527f467845524332304368696c6454756e6e656c3a204e4f5f4d41505045445f544f60448201526225a2a760e91b6064820152608401610339565b604051632770a7eb60e21b8152336004820152602481018490526001600160a01b03831690639dc29fac90604401600060405180830381600087803b1580156106da57600080fd5b505af11580156106ee573d6000803e3d6000fd5b5050604080516001600160a01b038086166020830152808a169282019290925290871660608201526080810186905261073b925060a0019050604051602081830303815290604052610b06565b5050505050565b60008060008060008580602001905181019061075e9190610ec5565b6001600160a01b03858116600090815260026020526040908190205490516340c10f1960e01b8152858316600482015260248101859052969b5094995092975090955093501690819081906340c10f1990604401600060405180830381600087803b1580156107cc57600080fd5b505af11580156107e0573d6000803e3d6000fd5b50505050843b63ffffffff1615610873576040516001600160a01b038089166024830152808416604483015280881660648301528616608482015260a4810185905260c48101849052621e848090600090819060e40160408051601f198184030181529190526020810180516001600160e01b0316630b32406160e11b17815281519192506000918291828c88f1505050505b8284866001600160a01b03167f227dee57e055570f4a111f75d872c7f3bf262162c3c50723c3c7f1cc40b1bbfa60405160405180910390a45050505050505050565b6000806000806000806000878060200190518101906108d49190610f43565b6001600160a01b03808716600090815260026020526040902054969c50949a50929850909650945092501680156109585760405162461bcd60e51b815260206004820152602260248201527f467845524332304368696c6454756e6e656c3a20414c52454144595f4d415050604482015261115160f21b6064820152608401610339565b6040516bffffffffffffffffffffffff19606089901b1660208201526000906034016040516020818303038152906040528051906020012090506109bc817f0000000000000000000000000000000000000000000000000000000000000000610b40565b9150816001600160a01b0316630cf39ef8308a8a6040518060400160405280600a8152602001692028465845524332302960b01b815250604051602001610a04929190610ffb565b604051602081830303815290604052604051806040016040528060028152602001610ccf60f31b8152508b604051602001610a40929190610ffb565b6040516020818303038152906040528a8a8a6040518863ffffffff1660e01b8152600401610a74979695949392919061102a565b600060405180830381600087803b158015610a8e57600080fd5b505af1158015610aa2573d6000803e3d6000fd5b505050506001600160a01b0388811660008181526002602052604080822080546001600160a01b0319169487169485179055517f85920d35e6c72f6b2affffa04298b0cecfeba86e4a9f407df661f1cb8ab5e6179190a35098975050505050505050565b7f8c5261668696ce22758910d05bab8f186d6eb247ceac2af2e82c7dc17669b03681604051610b359190610c45565b60405180910390a150565b6000808260601b9050604051733d602d80600a3d3981f3363d3d373d3d3d363d7360601b81528160148201526e5af43d82803e903d91602b57fd5bf360881b6028820152846037826000f59250506001600160a01b038216610bee5760405162461bcd60e51b815260206004820152602160248201527f437265617465323a204661696c6564206f6e206d696e696d616c206465706c6f6044820152607960f81b6064820152608401610339565b5092915050565b60005b83811015610c10578181015183820152602001610bf8565b50506000910152565b60008151808452610c31816020860160208601610bf5565b601f01601f19169290920160200192915050565b602081526000610c586020830184610c19565b9392505050565b6001600160a01b0381168114610c7457600080fd5b50565b600080600060608486031215610c8c57600080fd5b83359250602084013591506040840135610ca581610c5f565b809150509250925092565b600060208284031215610cc257600080fd5b8135610c5881610c5f565b60008060008060608587031215610ce357600080fd5b843593506020850135610cf581610c5f565b9250604085013567ffffffffffffffff80821115610d1257600080fd5b818701915087601f830112610d2657600080fd5b813581811115610d3557600080fd5b886020828501011115610d4757600080fd5b95989497505060200194505050565b600080600060608486031215610d6b57600080fd5b8335610d7681610c5f565b92506020840135610d8681610c5f565b929592945050506040919091013590565b60008060408385031215610daa57600080fd5b8235610db581610c5f565b946020939093013593505050565b634e487b7160e01b600052604160045260246000fd5b600067ffffffffffffffff80841115610df457610df4610dc3565b604051601f8501601f19908116603f01168101908282118183101715610e1c57610e1c610dc3565b81604052809350858152868686011115610e3557600080fd5b610e43866020830187610bf5565b5050509392505050565b60008060408385031215610e6057600080fd5b82519150602083015167ffffffffffffffff811115610e7e57600080fd5b8301601f81018513610e8f57600080fd5b610e9e85825160208401610dd9565b9150509250929050565b600060208284031215610eba57600080fd5b8151610c5881610c5f565b600080600080600060a08688031215610edd57600080fd5b8551610ee881610c5f565b6020870151909550610ef981610c5f565b6040870151909450610f0a81610c5f565b6060870151608090970151959894975095949392505050565b600082601f830112610f3457600080fd5b610c5883835160208501610dd9565b60008060008060008060c08789031215610f5c57600080fd5b8651610f6781610c5f565b602088015190965067ffffffffffffffff80821115610f8557600080fd5b610f918a838b01610f23565b96506040890151915080821115610fa757600080fd5b50610fb489828a01610f23565b945050606087015160ff81168114610fcb57600080fd5b6080880151909350610fdc81610c5f565b60a0880151909250610fed81610c5f565b809150509295509295509295565b6000835161100d818460208801610bf5565b835190830190611021818360208801610bf5565b01949350505050565b600060018060a01b03808a168352808916602084015260e0604084015261105460e0840189610c19565b83810360608501526110668189610c19565b60ff9790971660808501525093841660a083015250911660c09091015294935050505056fea26469706673582212208cde0298e27e44d091098325e0dd17342d489114fbaf8982e8408dc62d83d62164736f6c63430008120033",
  "linkReferences": {},
  "deployedLinkReferences": {}
}