{
  "_format": "hh-sol-artifact-1",
  "contractName": "DKA",
  "sourceName": "contracts/DKA.sol",
  "abi": [
    {
      "inputs": [
        {
          "internalType": "address",
          "name": "forwarder",
          "type": "address"
        },
        {
          "internalType": "address",
          "name": "orderContract",
          "type": "address"
        }
      ],
      "stateMutability": "nonpayable",
      "type": "constructor"
    },
    {
      "inputs": [],
      "name": "InvalidShortString",
      "type": "error"
    },
    {
      "inputs": [
        {
          "internalType": "string",
          "name": "str",
          "type": "string"
        }
      ],
      "name": "StringTooLong",
      "type": "error"
    },
    {
      "anonymous": false,
      "inputs": [
        {
          "indexed": true,
          "internalType": "address",
          "name": "owner",
          "type": "address"
        },
        {
          "indexed": true,
          "internalType": "address",
          "name": "spender",
          "type": "address"
        },
        {
          "indexed": false,
          "internalType": "uint256",
          "name": "value",
          "type": "uint256"
        }
      ],
      "name": "Approval",
      "type": "event"
    },
    {
      "anonymous": false,
      "inputs": [],
      "name": "EIP712DomainChanged",
      "type": "event"
    },
    {
      "anonymous": false,
      "inputs": [
        {
          "indexed": true,
          "internalType": "address",
          "name": "from",
          "type": "address"
        },
        {
          "indexed": true,
          "internalType": "address",
          "name": "to",
          "type": "address"
        },
        {
          "indexed": false,
          "internalType": "uint256",
          "name": "value",
          "type": "uint256"
        }
      ],
      "name": "Transfer",
      "type": "event"
    },
    {
      "inputs": [],
      "name": "DOMAIN_SEPARATOR",
      "outputs": [
        {
          "internalType": "bytes32",
          "name": "",
          "type": "bytes32"
        }
      ],
      "stateMutability": "view",
      "type": "function"
    },
    {
      "inputs": [
        {
          "internalType": "address",
          "name": "owner",
          "type": "address"
        },
        {
          "internalType": "address",
          "name": "spender",
          "type": "address"
        }
      ],
      "name": "allowance",
      "outputs": [
        {
          "internalType": "uint256",
          "name": "",
          "type": "uint256"
        }
      ],
      "stateMutability": "view",
      "type": "function"
    },
    {
      "inputs": [
        {
          "internalType": "address",
          "name": "spender",
          "type": "address"
        },
        {
          "internalType": "uint256",
          "name": "amount",
          "type": "uint256"
        }
      ],
      "name": "approve",
      "outputs": [
        {
          "internalType": "bool",
          "name": "",
          "type": "bool"
        }
      ],
      "stateMutability": "nonpayable",
      "type": "function"
    },
    {
      "inputs": [
        {
          "internalType": "address",
          "name": "account",
          "type": "address"
        }
      ],
      "name": "balanceOf",
      "outputs": [
        {
          "internalType": "uint256",
          "name": "",
          "type": "uint256"
        }
      ],
      "stateMutability": "view",
      "type": "function"
    },
    {
      "inputs": [],
      "name": "decimals",
      "outputs": [
        {
          "internalType": "uint8",
          "name": "",
          "type": "uint8"
        }
      ],
      "stateMutability": "view",
      "type": "function"
    },
    {
      "inputs": [
        {
          "internalType": "address",
          "name": "spender",
          "type": "address"
        },
        {
          "internalType": "uint256",
          "name": "subtractedValue",
          "type": "uint256"
        }
      ],
      "name": "decreaseAllowance",
      "outputs": [
        {
          "internalType": "bool",
          "name": "",
          "type": "bool"
        }
      ],
      "stateMutability": "nonpayable",
      "type": "function"
    },
    {
      "inputs": [],
      "name": "eip712Domain",
      "outputs": [
        {
          "internalType": "bytes1",
          "name": "fields",
          "type": "bytes1"
        },
        {
          "internalType": "string",
          "name": "name",
          "type": "string"
        },
        {
          "internalType": "string",
          "name": "version",
          "type": "string"
        },
        {
          "internalType": "uint256",
          "name": "chainId",
          "type": "uint256"
        },
        {
          "internalType": "address",
          "name": "verifyingContract",
          "type": "address"
        },
        {
          "internalType": "bytes32",
          "name": "salt",
          "type": "bytes32"
        },
        {
          "internalType": "uint256[]",
          "name": "extensions",
          "type": "uint256[]"
        }
      ],
      "stateMutability": "view",
      "type": "function"
    },
    {
      "inputs": [
        {
          "internalType": "uint256",
          "name": "orderId",
          "type": "uint256"
        },
        {
          "internalType": "address",
          "name": "owner",
          "type": "address"
        }
      ],
      "name": "getNonce",
      "outputs": [
        {
          "internalType": "uint256",
          "name": "",
          "type": "uint256"
        }
      ],
      "stateMutability": "view",
      "type": "function"
    },
    {
      "inputs": [
        {
          "internalType": "address",
          "name": "spender",
          "type": "address"
        },
        {
          "internalType": "uint256",
          "name": "addedValue",
          "type": "uint256"
        }
      ],
      "name": "increaseAllowance",
      "outputs": [
        {
          "internalType": "bool",
          "name": "",
          "type": "bool"
        }
      ],
      "stateMutability": "nonpayable",
      "type": "function"
    },
    {
      "inputs": [
        {
          "internalType": "address",
          "name": "forwarder",
          "type": "address"
        }
      ],
      "name": "isTrustedForwarder",
      "outputs": [
        {
          "internalType": "bool",
          "name": "",
          "type": "bool"
        }
      ],
      "stateMutability": "view",
      "type": "function"
    },
    {
      "inputs": [],
      "name": "name",
      "outputs": [
        {
          "internalType": "string",
          "name": "",
          "type": "string"
        }
      ],
      "stateMutability": "view",
      "type": "function"
    },
    {
      "inputs": [
        {
          "internalType": "address",
          "name": "owner",
          "type": "address"
        }
      ],
      "name": "nonces",
      "outputs": [
        {
          "internalType": "uint256",
          "name": "",
          "type": "uint256"
        }
      ],
      "stateMutability": "view",
      "type": "function"
    },
    {
      "inputs": [
        {
          "internalType": "address",
          "name": "owner",
          "type": "address"
        },
        {
          "internalType": "address",
          "name": "spender",
          "type": "address"
        },
        {
          "internalType": "uint256",
          "name": "value",
          "type": "uint256"
        },
        {
          "internalType": "uint256",
          "name": "deadline",
          "type": "uint256"
        },
        {
          "internalType": "uint8",
          "name": "v",
          "type": "uint8"
        },
        {
          "internalType": "bytes32",
          "name": "r",
          "type": "bytes32"
        },
        {
          "internalType": "bytes32",
          "name": "s",
          "type": "bytes32"
        }
      ],
      "name": "permit",
      "outputs": [],
      "stateMutability": "nonpayable",
      "type": "function"
    },
    {
      "inputs": [
        {
          "internalType": "uint256",
          "name": "orderId",
          "type": "uint256"
        },
        {
          "internalType": "address",
          "name": "owner",
          "type": "address"
        },
        {
          "internalType": "address",
          "name": "spender",
          "type": "address"
        },
        {
          "internalType": "uint256",
          "name": "value",
          "type": "uint256"
        },
        {
          "internalType": "uint256",
          "name": "deadline",
          "type": "uint256"
        },
        {
          "internalType": "bytes",
          "name": "signature",
          "type": "bytes"
        }
      ],
      "name": "permitLodis",
      "outputs": [],
      "stateMutability": "nonpayable",
      "type": "function"
    },
    {
      "inputs": [],
      "name": "symbol",
      "outputs": [
        {
          "internalType": "string",
          "name": "",
          "type": "string"
        }
      ],
      "stateMutability": "view",
      "type": "function"
    },
    {
      "inputs": [],
      "name": "totalSupply",
      "outputs": [
        {
          "internalType": "uint256",
          "name": "",
          "type": "uint256"
        }
      ],
      "stateMutability": "view",
      "type": "function"
    },
    {
      "inputs": [
        {
          "internalType": "address",
          "name": "to",
          "type": "address"
        },
        {
          "internalType": "uint256",
          "name": "amount",
          "type": "uint256"
        }
      ],
      "name": "transfer",
      "outputs": [
        {
          "internalType": "bool",
          "name": "",
          "type": "bool"
        }
      ],
      "stateMutability": "nonpayable",
      "type": "function"
    },
    {
      "inputs": [
        {
          "internalType": "address",
          "name": "from",
          "type": "address"
        },
        {
          "internalType": "address",
          "name": "to",
          "type": "address"
        },
        {
          "internalType": "uint256",
          "name": "amount",
          "type": "uint256"
        }
      ],
      "name": "transferFrom",
      "outputs": [
        {
          "internalType": "bool",
          "name": "",
          "type": "bool"
        }
      ],
      "stateMutability": "nonpayable",
      "type": "function"
    }
  ],
  "bytecode": "0x6101806040523480156200001257600080fd5b5060405162001e9e38038062001e9e83398101604081905262000035916200037c565b8160405180604001604052806006815260200165644b6172676f60d01b81525080604051806040016040528060018152602001603160f81b81525060405180604001604052806006815260200165644b6172676f60d01b81525060405180604001604052806003815260200162444b4160e81b8152508160039081620000bc919062000458565b506004620000cb828262000458565b505050620000e9600583620001fd60201b620008f61790919060201c565b6101205262000106816006620001fd602090811b620008f617901c565b61014052815160208084019190912060e052815190820120610100524660a0526200019460e05161010051604080517f8b73c3c69bb8fe3d512ecc4cf759cc79239f7b179b0ffacaa9a75d522b39400f60208201529081019290925260608201524660808201523060a082015260009060c00160405160208183030381529060405280519060200120905090565b60805250503060c052506001600160a01b0390811661016052600980546001600160a01b031916918316919091179055620001f533620001d2601290565b620001df90600a62000637565b620001ef90633b9aca006200064f565b6200024d565b5050620006f4565b60006020835110156200021d57620002158362000314565b905062000247565b8262000234836200035760201b620009271760201c565b9062000241908262000458565b5060ff90505b92915050565b6001600160a01b038216620002a95760405162461bcd60e51b815260206004820152601f60248201527f45524332303a206d696e7420746f20746865207a65726f20616464726573730060448201526064015b60405180910390fd5b8060026000828254620002bd919062000669565b90915550506001600160a01b038216600081815260208181526040808320805486019055518481527fddf252ad1be2c89b69c2b068fc378daa952ba7f163c4a11628f55a4df523b3ef910160405180910390a35050565b600080829050601f8151111562000342578260405163305a27a960e01b8152600401620002a091906200067f565b80516200034f82620006cf565b179392505050565b90565b505050565b80516001600160a01b03811681146200037757600080fd5b919050565b600080604083850312156200039057600080fd5b6200039b836200035f565b9150620003ab602084016200035f565b90509250929050565b634e487b7160e01b600052604160045260246000fd5b600181811c90821680620003df57607f821691505b6020821081036200040057634e487b7160e01b600052602260045260246000fd5b50919050565b601f8211156200035a57600081815260208120601f850160051c810160208610156200042f5750805b601f850160051c820191505b8181101562000450578281556001016200043b565b505050505050565b81516001600160401b03811115620004745762000474620003b4565b6200048c81620004858454620003ca565b8462000406565b602080601f831160018114620004c45760008415620004ab5750858301515b600019600386901b1c1916600185901b17855562000450565b600085815260208120601f198616915b82811015620004f557888601518255948401946001909101908401620004d4565b5085821015620005145787850151600019600388901b60f8161c191681555b5050505050600190811b01905550565b634e487b7160e01b600052601160045260246000fd5b600181815b808511156200057b5781600019048211156200055f576200055f62000524565b808516156200056d57918102915b93841c93908002906200053f565b509250929050565b600082620005945750600162000247565b81620005a35750600062000247565b8160018114620005bc5760028114620005c757620005e7565b600191505062000247565b60ff841115620005db57620005db62000524565b50506001821b62000247565b5060208310610133831016604e8410600b84101617156200060c575081810a62000247565b6200061883836200053a565b80600019048211156200062f576200062f62000524565b029392505050565b60006200064860ff84168362000583565b9392505050565b808202811582820484141762000247576200024762000524565b8082018082111562000247576200024762000524565b600060208083528351808285015260005b81811015620006ae5785810183015185820160400152820162000690565b506000604082860101526040601f19601f8301168501019250505092915050565b80516020808301519190811015620004005760001960209190910360031b1b16919050565b60805160a05160c05160e051610100516101205161014051610160516117446200075a60003960006103b2015260006104b60152600061048b01526000610d6b01526000610d4301526000610c9e01526000610cc801526000610cf201526117446000f3fe608060405234801561001057600080fd5b50600436106101165760003560e01c806373856615116100a2578063a457c2d711610071578063a457c2d714610230578063a9059cbb14610243578063b7e9d2ca14610256578063d505accf1461026b578063dd62ed3e1461027e57600080fd5b806373856615146101e75780637ecebe00146101fa57806384b0196e1461020d57806395d89b411461022857600080fd5b8063313ce567116100e9578063313ce567146101815780633644e515146101905780633950935114610198578063572b6c05146101ab57806370a08231146101be57600080fd5b806306fdde031461011b578063095ea7b31461013957806318160ddd1461015c57806323b872dd1461016e575b600080fd5b610123610291565b6040516101309190611245565b60405180910390f35b61014c610147366004611274565b610323565b6040519015158152602001610130565b6002545b604051908152602001610130565b61014c61017c36600461129e565b610347565b60405160128152602001610130565b610160610375565b61014c6101a6366004611274565b610384565b61014c6101b93660046112da565b6103b0565b6101606101cc3660046112da565b6001600160a01b031660009081526020819052604090205490565b6101606101f53660046112f5565b6103e2565b6101606102083660046112da565b61045f565b61021561047d565b6040516101309796959493929190611321565b610123610506565b61014c61023e366004611274565b610515565b61014c610251366004611274565b6105a0565b6102696102643660046113cd565b6105b8565b005b6102696102793660046114bb565b610767565b61016061028c36600461152e565b6108cb565b6060600380546102a090611558565b80601f01602080910402602001604051908101604052809291908181526020018280546102cc90611558565b80156103195780601f106102ee57610100808354040283529160200191610319565b820191906000526020600020905b8154815290600101906020018083116102fc57829003601f168201915b5050505050905090565b60008061032e61092a565b905061033b81858561094f565b60019150505b92915050565b60008061035261092a565b905061035f858285610a73565b61036a858585610aed565b506001949350505050565b600061037f610c91565b905090565b60008061038f61092a565b905061033b8185856103a185896108cb565b6103ab919061158c565b61094f565b7f00000000000000000000000000000000000000000000000000000000000000006001600160a01b0390811691161490565b600954604051637385661560e01b8152600481018490526001600160a01b0383811660248301526000921690637385661590604401602060405180830381865afa158015610434573d6000803e3d6000fd5b505050506040513d601f19601f8201168201806040525081019061045891906115ad565b9392505050565b6001600160a01b038116600090815260076020526040812054610341565b6000606080828080836104b17f00000000000000000000000000000000000000000000000000000000000000006005610dbc565b6104dc7f00000000000000000000000000000000000000000000000000000000000000006006610dbc565b60408051600080825260208201909252600f60f81b9b939a50919850469750309650945092509050565b6060600480546102a090611558565b60008061052061092a565b9050600061052e82866108cb565b9050838110156105935760405162461bcd60e51b815260206004820152602560248201527f45524332303a2064656372656173656420616c6c6f77616e63652062656c6f77604482015264207a65726f60d81b60648201526084015b60405180910390fd5b61036a828686840361094f565b6000806105ab61092a565b905061033b818585610aed565b6009546001600160a01b031633146105cf57600080fd5b8142111561061f5760405162461bcd60e51b815260206004820152601d60248201527f45524332305065726d69743a206578706972656420646561646c696e65000000604482015260640161058a565b60007f39cc20695ba40b8968f4228c4ece50c167d7b4821c48b1d6763d476a5079683886868661064f8b8b6103e2565b6040805160208101969096526001600160a01b0394851690860152929091166060840152608083015260a082015260c0810184905260e00160405160208183030381529060405280519060200120905060006106a9610c91565b60405161190160f01b602082015260228101919091526042810183905260620160405160208183030381529060405280519060200120905060006106ed8285610e60565b509050876001600160a01b0316816001600160a01b0316146107515760405162461bcd60e51b815260206004820152601e60248201527f45524332305065726d69743a20696e76616c6964207369676e61747572650000604482015260640161058a565b61075c88888861094f565b505050505050505050565b834211156107b75760405162461bcd60e51b815260206004820152601d60248201527f45524332305065726d69743a206578706972656420646561646c696e65000000604482015260640161058a565b60007f6e71edae12b1b97f4d1f60370fef10105fa2faae0126114a169c64845d6126c98888886107e68c610ea5565b6040805160208101969096526001600160a01b0394851690860152929091166060840152608083015260a082015260c0810186905260e001604051602081830303815290604052805190602001209050600061084182610ecd565b9050600061085182878787610efa565b9050896001600160a01b0316816001600160a01b0316146108b45760405162461bcd60e51b815260206004820152601e60248201527f45524332305065726d69743a20696e76616c6964207369676e61747572650000604482015260640161058a565b6108bf8a8a8a61094f565b50505050505050505050565b6001600160a01b03918216600090815260016020908152604080832093909416825291909152205490565b60006020835110156109125761090b83610f22565b9050610341565b8161091d8482611614565b5060ff9050610341565b90565b6000610935336103b0565b15610947575060131936013560601c90565b61037f610f60565b6001600160a01b0383166109b15760405162461bcd60e51b8152602060048201526024808201527f45524332303a20617070726f76652066726f6d20746865207a65726f206164646044820152637265737360e01b606482015260840161058a565b6001600160a01b038216610a125760405162461bcd60e51b815260206004820152602260248201527f45524332303a20617070726f766520746f20746865207a65726f206164647265604482015261737360f01b606482015260840161058a565b6001600160a01b0383811660008181526001602090815260408083209487168084529482529182902085905590518481527f8c5be1e5ebec7d5bd14f71427d1e84f3dd0314c0f7b2291e5b200ac8c7c3b925910160405180910390a3505050565b6000610a7f84846108cb565b90506000198114610ae75781811015610ada5760405162461bcd60e51b815260206004820152601d60248201527f45524332303a20696e73756666696369656e7420616c6c6f77616e6365000000604482015260640161058a565b610ae7848484840361094f565b50505050565b6001600160a01b038316610b515760405162461bcd60e51b815260206004820152602560248201527f45524332303a207472616e736665722066726f6d20746865207a65726f206164604482015264647265737360d81b606482015260840161058a565b6001600160a01b038216610bb35760405162461bcd60e51b815260206004820152602360248201527f45524332303a207472616e7366657220746f20746865207a65726f206164647260448201526265737360e81b606482015260840161058a565b6001600160a01b03831660009081526020819052604090205481811015610c2b5760405162461bcd60e51b815260206004820152602660248201527f45524332303a207472616e7366657220616d6f756e7420657863656564732062604482015265616c616e636560d01b606482015260840161058a565b6001600160a01b03848116600081815260208181526040808320878703905593871680835291849020805487019055925185815290927fddf252ad1be2c89b69c2b068fc378daa952ba7f163c4a11628f55a4df523b3ef910160405180910390a3610ae7565b6000306001600160a01b037f000000000000000000000000000000000000000000000000000000000000000016148015610cea57507f000000000000000000000000000000000000000000000000000000000000000046145b15610d1457507f000000000000000000000000000000000000000000000000000000000000000090565b61037f604080517f8b73c3c69bb8fe3d512ecc4cf759cc79239f7b179b0ffacaa9a75d522b39400f60208201527f0000000000000000000000000000000000000000000000000000000000000000918101919091527f000000000000000000000000000000000000000000000000000000000000000060608201524660808201523060a082015260009060c00160405160208183030381529060405280519060200120905090565b606060ff8314610dcf5761090b83610f87565b818054610ddb90611558565b80601f0160208091040260200160405190810160405280929190818152602001828054610e0790611558565b8015610e545780601f10610e2957610100808354040283529160200191610e54565b820191906000526020600020905b815481529060010190602001808311610e3757829003601f168201915b50505050509050610341565b6000808251604103610e965760208301516040840151606085015160001a610e8a87828585610fc6565b94509450505050610e9e565b506000905060025b9250929050565b6001600160a01b03811660009081526007602052604090208054600181018255905b50919050565b6000610341610eda610c91565b8360405161190160f01b8152600281019290925260228201526042902090565b6000806000610f0b87878787610fc6565b91509150610f188161108a565b5095945050505050565b600080829050601f81511115610f4d578260405163305a27a960e01b815260040161058a9190611245565b8051610f58826116d4565b179392505050565b6000610f6b336103b0565b15610f7d575060131936013560601c90565b503390565b505050565b60606000610f94836111d7565b604080516020808252818301909252919250600091906020820181803683375050509182525060208101929092525090565b6000807f7fffffffffffffffffffffffffffffff5d576e7357a4501ddfe92f46681b20a0831115610ffd5750600090506003611081565b6040805160008082526020820180845289905260ff881692820192909252606081018690526080810185905260019060a0016020604051602081039080840390855afa158015611051573d6000803e3d6000fd5b5050604051601f1901519150506001600160a01b03811661107a57600060019250925050611081565b9150600090505b94509492505050565b600081600481111561109e5761109e6116f8565b036110a65750565b60018160048111156110ba576110ba6116f8565b036111075760405162461bcd60e51b815260206004820152601860248201527f45434453413a20696e76616c6964207369676e61747572650000000000000000604482015260640161058a565b600281600481111561111b5761111b6116f8565b036111685760405162461bcd60e51b815260206004820152601f60248201527f45434453413a20696e76616c6964207369676e6174757265206c656e67746800604482015260640161058a565b600381600481111561117c5761117c6116f8565b036111d45760405162461bcd60e51b815260206004820152602260248201527f45434453413a20696e76616c6964207369676e6174757265202773272076616c604482015261756560f01b606482015260840161058a565b50565b600060ff8216601f81111561034157604051632cd44ac360e21b815260040160405180910390fd5b6000815180845260005b8181101561122557602081850181015186830182015201611209565b506000602082860101526020601f19601f83011685010191505092915050565b60208152600061045860208301846111ff565b80356001600160a01b038116811461126f57600080fd5b919050565b6000806040838503121561128757600080fd5b61129083611258565b946020939093013593505050565b6000806000606084860312156112b357600080fd5b6112bc84611258565b92506112ca60208501611258565b9150604084013590509250925092565b6000602082840312156112ec57600080fd5b61045882611258565b6000806040838503121561130857600080fd5b8235915061131860208401611258565b90509250929050565b60ff60f81b881681526000602060e08184015261134160e084018a6111ff565b8381036040850152611353818a6111ff565b606085018990526001600160a01b038816608086015260a0850187905284810360c0860152855180825283870192509083019060005b818110156113a557835183529284019291840191600101611389565b50909c9b505050505050505050505050565b634e487b7160e01b600052604160045260246000fd5b60008060008060008060c087890312156113e657600080fd5b863595506113f660208801611258565b945061140460408801611258565b9350606087013592506080870135915060a087013567ffffffffffffffff8082111561142f57600080fd5b818901915089601f83011261144357600080fd5b813581811115611455576114556113b7565b604051601f8201601f19908116603f0116810190838211818310171561147d5761147d6113b7565b816040528281528c602084870101111561149657600080fd5b8260208601602083013760006020848301015280955050505050509295509295509295565b600080600080600080600060e0888a0312156114d657600080fd5b6114df88611258565b96506114ed60208901611258565b95506040880135945060608801359350608088013560ff8116811461151157600080fd5b9699959850939692959460a0840135945060c09093013592915050565b6000806040838503121561154157600080fd5b61154a83611258565b915061131860208401611258565b600181811c9082168061156c57607f821691505b602082108103610ec757634e487b7160e01b600052602260045260246000fd5b8082018082111561034157634e487b7160e01b600052601160045260246000fd5b6000602082840312156115bf57600080fd5b5051919050565b601f821115610f8257600081815260208120601f850160051c810160208610156115ed5750805b601f850160051c820191505b8181101561160c578281556001016115f9565b505050505050565b815167ffffffffffffffff81111561162e5761162e6113b7565b6116428161163c8454611558565b846115c6565b602080601f831160018114611677576000841561165f5750858301515b600019600386901b1c1916600185901b17855561160c565b600085815260208120601f198616915b828110156116a657888601518255948401946001909101908401611687565b50858210156116c45787850151600019600388901b60f8161c191681555b5050505050600190811b01905550565b80516020808301519190811015610ec75760001960209190910360031b1b16919050565b634e487b7160e01b600052602160045260246000fdfea26469706673582212203e0b9815824681cb482b555afb5cb777926179596f7ba6c8dffce2260d50af4e64736f6c63430008120033",
  "linkReferences": {},
  "deployedLinkReferences": {}
}