{
  "_format": "hh-sol-artifact-1",
  "contractName": "Order",
  "sourceName": "contracts/Order.sol",
  "abi": [
    {
      "inputs": [
        {
          "internalType": "uint256",
          "name": "_orderId",
          "type": "uint256"
        },
        {
          "internalType": "address",
          "name": "orderRules",
          "type": "address"
        },
        {
          "internalType": "address",
          "name": "forwarder",
          "type": "address"
        }
      ],
      "stateMutability": "nonpayable",
      "type": "constructor"
    },
    {
      "inputs": [],
      "name": "InvalidShortString",
      "type": "error"
    },
    {
      "inputs": [
        {
          "internalType": "string",
          "name": "str",
          "type": "string"
        }
      ],
      "name": "StringTooLong",
      "type": "error"
    },
    {
      "anonymous": false,
      "inputs": [],
      "name": "EIP712DomainChanged",
      "type": "event"
    },
    {
      "anonymous": false,
      "inputs": [
        {
          "indexed": false,
          "internalType": "uint256",
          "name": "orderId",
          "type": "uint256"
        },
        {
          "indexed": false,
          "internalType": "enum Order.shippingState",
          "name": "state",
          "type": "uint8"
        }
      ],
      "name": "carrierpickUp",
      "type": "event"
    },
    {
      "anonymous": false,
      "inputs": [
        {
          "indexed": false,
          "internalType": "uint256",
          "name": "orderId",
          "type": "uint256"
        },
        {
          "indexed": false,
          "internalType": "enum Order.shippingState",
          "name": "state",
          "type": "uint8"
        }
      ],
      "name": "orderCanceled",
      "type": "event"
    },
    {
      "anonymous": false,
      "inputs": [
        {
          "indexed": false,
          "internalType": "uint256",
          "name": "orderId",
          "type": "uint256"
        },
        {
          "indexed": false,
          "internalType": "enum Order.shippingState",
          "name": "state",
          "type": "uint8"
        }
      ],
      "name": "orderCompleted",
      "type": "event"
    },
    {
      "anonymous": false,
      "inputs": [
        {
          "indexed": false,
          "internalType": "uint256",
          "name": "orderId",
          "type": "uint256"
        },
        {
          "indexed": false,
          "internalType": "enum Order.shippingState",
          "name": "state",
          "type": "uint8"
        }
      ],
      "name": "orderCreated",
      "type": "event"
    },
    {
      "anonymous": false,
      "inputs": [
        {
          "indexed": false,
          "internalType": "uint256",
          "name": "orderId",
          "type": "uint256"
        },
        {
          "indexed": false,
          "internalType": "enum Order.shippingState",
          "name": "state",
          "type": "uint8"
        }
      ],
      "name": "orderFailed",
      "type": "event"
    },
    {
      "anonymous": false,
      "inputs": [
        {
          "indexed": false,
          "internalType": "uint256",
          "name": "orderId",
          "type": "uint256"
        },
        {
          "indexed": false,
          "internalType": "enum Order.shippingState",
          "name": "state",
          "type": "uint8"
        }
      ],
      "name": "orderMatched",
      "type": "event"
    },
    {
      "inputs": [],
      "name": "DOMAIN_SEPARATOR",
      "outputs": [
        {
          "internalType": "bytes32",
          "name": "",
          "type": "bytes32"
        }
      ],
      "stateMutability": "view",
      "type": "function"
    },
    {
      "inputs": [
        {
          "internalType": "uint256",
          "name": "_orderId",
          "type": "uint256"
        }
      ],
      "name": "cancelOrderBeforeMatch",
      "outputs": [],
      "stateMutability": "nonpayable",
      "type": "function"
    },
    {
      "inputs": [
        {
          "internalType": "uint256",
          "name": "_orderId",
          "type": "uint256"
        }
      ],
      "name": "cancelOrderBeforePickUp",
      "outputs": [],
      "stateMutability": "nonpayable",
      "type": "function"
    },
    {
      "inputs": [
        {
          "internalType": "uint256",
          "name": "_orderId",
          "type": "uint256"
        }
      ],
      "name": "completeOrderWithOutSig",
      "outputs": [],
      "stateMutability": "nonpayable",
      "type": "function"
    },
    {
      "inputs": [
        {
          "internalType": "address",
          "name": "shipper",
          "type": "address"
        },
        {
          "internalType": "bytes32",
          "name": "departure",
          "type": "bytes32"
        },
        {
          "internalType": "bytes32",
          "name": "destination",
          "type": "bytes32"
        },
        {
          "internalType": "bytes32",
          "name": "weight",
          "type": "bytes32"
        },
        {
          "internalType": "uint256",
          "name": "price",
          "type": "uint256"
        },
        {
          "internalType": "uint256",
          "name": "expiredDate",
          "type": "uint256"
        },
        {
          "internalType": "bool",
          "name": "pickupType",
          "type": "bool"
        },
        {
          "internalType": "bool",
          "name": "completeType",
          "type": "bool"
        },
        {
          "internalType": "string",
          "name": "extraData",
          "type": "string"
        }
      ],
      "name": "createOrder",
      "outputs": [
        {
          "internalType": "uint256",
          "name": "",
          "type": "uint256"
        }
      ],
      "stateMutability": "nonpayable",
      "type": "function"
    },
    {
      "inputs": [
        {
          "internalType": "uint256",
          "name": "_orderId",
          "type": "uint256"
        }
      ],
      "name": "delayPickUp",
      "outputs": [],
      "stateMutability": "nonpayable",
      "type": "function"
    },
    {
      "inputs": [],
      "name": "eip712Domain",
      "outputs": [
        {
          "internalType": "bytes1",
          "name": "fields",
          "type": "bytes1"
        },
        {
          "internalType": "string",
          "name": "name",
          "type": "string"
        },
        {
          "internalType": "string",
          "name": "version",
          "type": "string"
        },
        {
          "internalType": "uint256",
          "name": "chainId",
          "type": "uint256"
        },
        {
          "internalType": "address",
          "name": "verifyingContract",
          "type": "address"
        },
        {
          "internalType": "bytes32",
          "name": "salt",
          "type": "bytes32"
        },
        {
          "internalType": "uint256[]",
          "name": "extensions",
          "type": "uint256[]"
        }
      ],
      "stateMutability": "view",
      "type": "function"
    },
    {
      "inputs": [
        {
          "internalType": "uint256",
          "name": "_orderId",
          "type": "uint256"
        }
      ],
      "name": "expiredOrder",
      "outputs": [],
      "stateMutability": "nonpayable",
      "type": "function"
    },
    {
      "inputs": [
        {
          "internalType": "uint256",
          "name": "_orderId",
          "type": "uint256"
        },
        {
          "internalType": "address",
          "name": "owner",
          "type": "address"
        }
      ],
      "name": "getNonce",
      "outputs": [
        {
          "internalType": "uint256",
          "name": "",
          "type": "uint256"
        }
      ],
      "stateMutability": "view",
      "type": "function"
    },
    {
      "inputs": [
        {
          "internalType": "uint256",
          "name": "_orderId",
          "type": "uint256"
        }
      ],
      "name": "getOrder",
      "outputs": [
        {
          "components": [
            {
              "internalType": "uint256",
              "name": "_orderId",
              "type": "uint256"
            },
            {
              "internalType": "address",
              "name": "_shipper",
              "type": "address"
            },
            {
              "internalType": "address",
              "name": "_carrier",
              "type": "address"
            },
            {
              "internalType": "bytes32",
              "name": "_departure",
              "type": "bytes32"
            },
            {
              "internalType": "bytes32",
              "name": "_destination",
              "type": "bytes32"
            },
            {
              "internalType": "bytes32",
              "name": "_packageWeight",
              "type": "bytes32"
            },
            {
              "internalType": "uint256",
              "name": "_price",
              "type": "uint256"
            },
            {
              "internalType": "uint256",
              "name": "_reward",
              "type": "uint256"
            },
            {
              "internalType": "uint256",
              "name": "_collateral",
              "type": "uint256"
            },
            {
              "internalType": "uint256",
              "name": "_failDate",
              "type": "uint256"
            },
            {
              "internalType": "uint256",
              "name": "_pickupDate",
              "type": "uint256"
            },
            {
              "internalType": "uint256",
              "name": "_expiredDate",
              "type": "uint256"
            },
            {
              "internalType": "enum Order.shippingState",
              "name": "_shipState",
              "type": "uint8"
            },
            {
              "internalType": "bool",
              "name": "isDirect",
              "type": "bool"
            },
            {
              "internalType": "bool",
              "name": "ispickupContact",
              "type": "bool"
            },
            {
              "internalType": "bool",
              "name": "iscompleteContact",
              "type": "bool"
            },
            {
              "internalType": "uint256",
              "name": "treasuryFee",
              "type": "uint256"
            },
            {
              "internalType": "uint256",
              "name": "shipperFee",
              "type": "uint256"
            },
            {
              "internalType": "uint256",
              "name": "carrierFee",
              "type": "uint256"
            }
          ],
          "internalType": "struct Order.order",
          "name": "",
          "type": "tuple"
        }
      ],
      "stateMutability": "view",
      "type": "function"
    },
    {
      "inputs": [],
      "name": "getOrderId",
      "outputs": [
        {
          "internalType": "uint256",
          "name": "",
          "type": "uint256"
        }
      ],
      "stateMutability": "view",
      "type": "function"
    },
    {
      "inputs": [
        {
          "internalType": "address",
          "name": "user",
          "type": "address"
        }
      ],
      "name": "getRecord",
      "outputs": [
        {
          "components": [
            {
              "internalType": "uint256",
              "name": "completeOrder_shipping",
              "type": "uint256"
            },
            {
              "internalType": "uint256",
              "name": "completeOrder_carrying",
              "type": "uint256"
            },
            {
              "internalType": "uint256",
              "name": "expiredOrder",
              "type": "uint256"
            },
            {
              "internalType": "uint256",
              "name": "failOrder",
              "type": "uint256"
            }
          ],
          "internalType": "struct Order.TrackContributions",
          "name": "",
          "type": "tuple"
        }
      ],
      "stateMutability": "view",
      "type": "function"
    },
    {
      "inputs": [
        {
          "internalType": "uint256",
          "name": "_orderId",
          "type": "uint256"
        },
        {
          "internalType": "address",
          "name": "owner",
          "type": "address"
        },
        {
          "components": [
            {
              "internalType": "uint256",
              "name": "orderId",
              "type": "uint256"
            },
            {
              "internalType": "address",
              "name": "shipper",
              "type": "address"
            },
            {
              "internalType": "address",
              "name": "carrier",
              "type": "address"
            },
            {
              "internalType": "bytes32",
              "name": "departure",
              "type": "bytes32"
            },
            {
              "internalType": "bytes32",
              "name": "destination",
              "type": "bytes32"
            },
            {
              "internalType": "bytes32",
              "name": "packageWeight",
              "type": "bytes32"
            },
            {
              "internalType": "uint256",
              "name": "packagePrice",
              "type": "uint256"
            },
            {
              "internalType": "uint256",
              "name": "reward",
              "type": "uint256"
            },
            {
              "internalType": "uint256",
              "name": "collateral",
              "type": "uint256"
            },
            {
              "internalType": "uint256",
              "name": "expiredDate",
              "type": "uint256"
            },
            {
              "internalType": "uint256",
              "name": "nonce",
              "type": "uint256"
            }
          ],
          "internalType": "struct Order.OrderSigData",
          "name": "orderSigData",
          "type": "tuple"
        }
      ],
      "name": "hashStruct",
      "outputs": [
        {
          "internalType": "bytes32",
          "name": "",
          "type": "bytes32"
        }
      ],
      "stateMutability": "view",
      "type": "function"
    },
    {
      "inputs": [
        {
          "internalType": "address",
          "name": "forwarder",
          "type": "address"
        }
      ],
      "name": "isTrustedForwarder",
      "outputs": [
        {
          "internalType": "bool",
          "name": "",
          "type": "bool"
        }
      ],
      "stateMutability": "view",
      "type": "function"
    },
    {
      "inputs": [
        {
          "internalType": "uint256",
          "name": "_orderId",
          "type": "uint256"
        }
      ],
      "name": "pickOrderWithOutSig",
      "outputs": [],
      "stateMutability": "nonpayable",
      "type": "function"
    },
    {
      "inputs": [
        {
          "internalType": "uint256",
          "name": "_orderId",
          "type": "uint256"
        },
        {
          "components": [
            {
              "internalType": "uint256",
              "name": "orderId",
              "type": "uint256"
            },
            {
              "internalType": "address",
              "name": "shipper",
              "type": "address"
            },
            {
              "internalType": "address",
              "name": "carrier",
              "type": "address"
            },
            {
              "internalType": "bytes32",
              "name": "departure",
              "type": "bytes32"
            },
            {
              "internalType": "bytes32",
              "name": "destination",
              "type": "bytes32"
            },
            {
              "internalType": "bytes32",
              "name": "packageWeight",
              "type": "bytes32"
            },
            {
              "internalType": "uint256",
              "name": "packagePrice",
              "type": "uint256"
            },
            {
              "internalType": "uint256",
              "name": "reward",
              "type": "uint256"
            },
            {
              "internalType": "uint256",
              "name": "collateral",
              "type": "uint256"
            },
            {
              "internalType": "uint256",
              "name": "expiredDate",
              "type": "uint256"
            },
            {
              "internalType": "uint256",
              "name": "nonce",
              "type": "uint256"
            }
          ],
          "internalType": "struct Order.OrderSigData",
          "name": "carrierOrderData",
          "type": "tuple"
        },
        {
          "internalType": "bytes",
          "name": "carrierOrderSig",
          "type": "bytes"
        },
        {
          "components": [
            {
              "internalType": "address",
              "name": "owner",
              "type": "address"
            },
            {
              "internalType": "address",
              "name": "spender",
              "type": "address"
            },
            {
              "internalType": "uint256",
              "name": "value",
              "type": "uint256"
            },
            {
              "internalType": "uint256",
              "name": "nonce",
              "type": "uint256"
            },
            {
              "internalType": "uint256",
              "name": "deadline",
              "type": "uint256"
            }
          ],
          "internalType": "struct Order.PermitSigData",
          "name": "carrierPermitData",
          "type": "tuple"
        },
        {
          "internalType": "bytes",
          "name": "carrierCollateralSig",
          "type": "bytes"
        },
        {
          "components": [
            {
              "internalType": "address",
              "name": "owner",
              "type": "address"
            },
            {
              "internalType": "address",
              "name": "spender",
              "type": "address"
            },
            {
              "internalType": "uint256",
              "name": "value",
              "type": "uint256"
            },
            {
              "internalType": "uint256",
              "name": "nonce",
              "type": "uint256"
            },
            {
              "internalType": "uint256",
              "name": "deadline",
              "type": "uint256"
            }
          ],
          "internalType": "struct Order.PermitSigData",
          "name": "shipperPermitData",
          "type": "tuple"
        },
        {
          "internalType": "bytes",
          "name": "shipperRewardSig",
          "type": "bytes"
        }
      ],
      "name": "selectOrder",
      "outputs": [],
      "stateMutability": "nonpayable",
      "type": "function"
    }
  ],
  "bytecode": "0x61018060405260056004553480156200001757600080fd5b5060405162004718380380620047188339810160408190526200003a9162000230565b806040518060400160405280600581526020016427b93232b960d91b815250604051806040016040528060018152602001603160f81b8152506200008e6000836200017460201b620032f51790919060201c565b61012052620000ab81600162000174602090811b620032f517901c565b61014052815160208084019190912060e052815190820120610100524660a0526200013960e05161010051604080517f8b73c3c69bb8fe3d512ecc4cf759cc79239f7b179b0ffacaa9a75d522b39400f60208201529081019290925260608201524660808201523060a082015260009060c00160405160208183030381529060405280519060200120905090565b60805250503060c0526001600160a01b0390811661016052600780546001600160a01b03191693909116929092179091555060035562000457565b600060208351101562000194576200018c83620001c4565b9050620001be565b82620001ab836200021060201b620033261760201c565b90620001b8908262000316565b5060ff90505b92915050565b600080829050601f81511115620001fb578260405163305a27a960e01b8152600401620001f29190620003e2565b60405180910390fd5b8051620002088262000432565b179392505050565b90565b80516001600160a01b03811681146200022b57600080fd5b919050565b6000806000606084860312156200024657600080fd5b83519250620002586020850162000213565b9150620002686040850162000213565b90509250925092565b634e487b7160e01b600052604160045260246000fd5b600181811c908216806200029c57607f821691505b602082108103620002bd57634e487b7160e01b600052602260045260246000fd5b50919050565b601f8211156200031157600081815260208120601f850160051c81016020861015620002ec5750805b601f850160051c820191505b818110156200030d57828155600101620002f8565b5050505b505050565b81516001600160401b0381111562000332576200033262000271565b6200034a8162000343845462000287565b84620002c3565b602080601f831160018114620003825760008415620003695750858301515b600019600386901b1c1916600185901b1785556200030d565b600085815260208120601f198616915b82811015620003b35788860151825594840194600190910190840162000392565b5085821015620003d25787850151600019600388901b60f8161c191681555b5050505050600190811b01905550565b600060208083528351808285015260005b818110156200041157858101830151858201604001528201620003f3565b506000604082860101526040601f19601f8301168501019250505092915050565b80516020808301519190811015620002bd5760001960209190910360031b1b16919050565b60805160a05160c05160e05161010051610120516101405161016051614254620004c460003960008181610191015261332d0152600061187101526000611847015260006134470152600061341f0152600061337a015260006133a4015260006133ce01526142546000f3fe608060405234801561001057600080fd5b50600436106101005760003560e01c80637385661511610097578063b6841c1b11610066578063b6841c1b14610260578063c67345d714610273578063cfd6adaa14610286578063d09ef2411461029957600080fd5b8063738566151461021757806384b0196e1461022a578063956896b014610245578063a84964261461025857600080fd5b806343b422cf116100d357806343b422cf1461015b57806352d67c051461016e578063572b6c0514610181578063617fba04146101d157600080fd5b806313c0d2e1146101055780631a8c6c4b1461011a5780632a223cad1461012d5780633644e51514610153575b600080fd5b610118610113366004613755565b6102b9565b005b610118610128366004613755565b610439565b61014061013b366004613875565b610544565b6040519081526020015b60405180910390f35b610140610627565b6101186101693660046139cd565b610636565b61011861017c366004613755565b610ee3565b6101c161018f366004613a9a565b7f00000000000000000000000000000000000000000000000000000000000000006001600160a01b0390811691161490565b604051901515815260200161014a565b6101e46101df366004613a9a565b611799565b60405161014a91908151815260208083015190820152604080830151908201526060918201519181019190915260800190565b610140610225366004613ab7565b61180f565b610232611839565b60405161014a9796959493929190613b2d565b610140610253366004613bd1565b6118c1565b600354610140565b61011861026e366004613755565b611e7c565b610118610281366004613755565b61247d565b610118610294366004613755565b612973565b6102ac6102a7366004613755565b613129565b60405161014a9190613cc3565b60016000828152600560205260409020600c015460ff1660088111156102e1576102e1613c8b565b146103075760405162461bcd60e51b81526004016102fe90613dc9565b60405180910390fd5b6000818152600560205260409020600201546001600160a01b031661032a613329565b6001600160a01b0316146103805760405162461bcd60e51b815260206004820152601d60248201527f6f6e6c7920636172726965722063616e207069636b206261676761676500000060448201526064016102fe565b6000818152600560205260409020600c015462010000900460ff16156103dd5760405162461bcd60e51b815260206004820152601260248201527106e6f6e2d636f6e74616374207069636b75760741b60448201526064016102fe565b60008181526005602052604090819020600c01805460ff1916600290811790915590517f7e28eaecff0e3b4212f47ff9eb5c29ab9352e550bd02fc9458264e6561344cfa9161042e91849190613df4565b60405180910390a150565b6000818152600560205260409020600101546001600160a01b031661045c613329565b6001600160a01b0316146104825760405162461bcd60e51b81526004016102fe90613e08565b6000818152600560205260408120600c015460ff1660088111156104a8576104a8613c8b565b146105055760405162461bcd60e51b815260206004820152602760248201527f6f6e6c79206f72646572206265666f7265206d617463682063616e2062652063604482015266185b98d95b195960ca1b60648201526084016102fe565b60008181526005602052604090819020600c01805460ff1916600690811790915590516000805160206141ff8339815191529161042e91849190613df4565b60007f2d416decf85570428506cbe3ba384aa273c07f87a4f1439ba73280e1822ceec1826000015183602001518460400151856060015186608001518760a001518860c001518960e001518a61010001518b61012001516105a58f8f61180f565b60408051602081019d909d528c019a909a526001600160a01b0398891660608c01529790961660808a015260a089019490945260c088019290925260e08701526101008601526101208501526101408401526101608301526101808201526101a0016040516020818303038152906040528051906020012090505b9392505050565b600061063161336d565b905090565b60008781526005602052604081205490036106855760405162461bcd60e51b815260206004820152600f60248201526e1bdc99195c881b9bdd08195e1a5cdd608a1b60448201526064016102fe565b6000878152600560205260408120600c015460ff1660088111156106ab576106ab613c8b565b146107065760405162461bcd60e51b815260206004820152602560248201527f6f6e6c79206e6f74206d617463686564206f726465722063616e206265206d616044820152641d18da195960da1b60648201526084016102fe565b6000878152600560205260409020600b015442106107665760405162461bcd60e51b815260206004820152601860248201527f6f72646572206d617463682074696d652065787069726564000000000000000060448201526064016102fe565b6000878152600560205260409020600101546001600160a01b0316610789613329565b6001600160a01b0316146107df5760405162461bcd60e51b815260206004820152601f60248201527f6f6e6c7920736869707065722063616e2073656c65637420636172726965720060448201526064016102fe565b600760009054906101000a90046001600160a01b03166001600160a01b031663263293016040518163ffffffff1660e01b8152600401602060405180830381865afa158015610832573d6000803e3d6000fd5b505050506040513d601f19601f820116820180604052508101906108569190613e49565b8660e0015110156108b75760405162461bcd60e51b815260206004820152602560248201527f636172726965722073686f756c642073756767657374206d696e696d616c2072604482015264195dd85c9960da1b60648201526084016102fe565b85604001516001600160a01b031684600001516001600160a01b0316146109315760405162461bcd60e51b815260206004820152602860248201527f636172726965722064696666657273206265747765656e206f7264657220616e60448201526719081c195c9b5a5d60c21b60648201526084016102fe565b8560e001518260400151146109945760405162461bcd60e51b815260206004820152602360248201527f736869707065722073686f756c64206c6f636b207265776172642070726f7065604482015262726c7960e81b60648201526084016102fe565b60008781526005602052604090819020600801549085015114610a0a5760405162461bcd60e51b815260206004820152602860248201527f63617272726965722073686f756c64206c6f636b20636f6c6c61746572616c2060448201526770726f7065726c7960c01b60648201526084016102fe565b6000610a1b88886040015189610544565b90506000610a31610a2b83613498565b886134c5565b50905087604001516001600160a01b0316816001600160a01b031614610a995760405162461bcd60e51b815260206004820152601760248201527f4f72646572205369676e617475726520696e76616c696400000000000000000060448201526064016102fe565b6007546040805163026be4bf60e41b815290516000926001600160a01b0316916326be4bf09160048083019260209291908290030181865afa158015610ae3573d6000803e3d6000fd5b505050506040513d601f19601f82011682018060405250810190610b079190613e62565b90506000600760009054906101000a90046001600160a01b03166001600160a01b031663bcff4f1e6040518163ffffffff1660e01b8152600401602060405180830381865afa158015610b5e573d6000803e3d6000fd5b505050506040513d601f19601f82011682018060405250810190610b829190613e49565b9050816001600160a01b031663b7e9d2ca8c8a60000151308c604001518d608001518d6040518763ffffffff1660e01b8152600401610bc696959493929190613e7f565b600060405180830381600087803b158015610be057600080fd5b505af1158015610bf4573d6000803e3d6000fd5b505089516040808c015190516323b872dd60e01b81526001600160a01b039283166004820152306024820152604481019190915290851692506323b872dd91506064016020604051808303816000875af1158015610c56573d6000803e3d6000fd5b505050506040513d601f19601f82011682018060405250810190610c7a9190613ecb565b50816001600160a01b031663b7e9d2ca8c8860000151308a604001518b608001518b6040518763ffffffff1660e01b8152600401610cbd96959493929190613e7f565b600060405180830381600087803b158015610cd757600080fd5b505af1158015610ceb573d6000803e3d6000fd5b505087516040808a015190516323b872dd60e01b81526001600160a01b039283166004820152306024820152604481019190915290851692506323b872dd91506064016020604051808303816000875af1158015610d4d573d6000803e3d6000fd5b505050506040513d601f19601f82011682018060405250810190610d719190613ecb565b50610d808b8b6040015161350a565b5060408a81015160008d81526005602052919091206002810180546001600160a01b0319166001600160a01b039093169290921790915560e08b01516007820155600c0154610100900460ff161515600103610e7d57610de08142613efe565b60008c815260056020908152604091829020600a0192909255600754815163ce40cdeb60e01b815291516001600160a01b039091169263ce40cdeb92600480820193918290030181865afa158015610e3c573d6000803e3d6000fd5b505050506040513d601f19601f82011682018060405250810190610e609190613e49565b610e6a9042613efe565b60008c8152600560205260409020600901555b60008b81526005602052604090819020600c01805460ff1916600190811790915590517f59e0ac0bd0bbda75e2f7bc66fbccf89d4e64bd3a0ff5be2d97608162cfd3789f91610ece918e9190613df4565b60405180910390a15050505050505050505050565b6000818152600560205260409020600201546001600160a01b0316610f06613329565b6001600160a01b03161480610f4457506000818152600560205260409020600101546001600160a01b0316610f39613329565b6001600160a01b0316145b610f605760405162461bcd60e51b81526004016102fe90613e08565b60016000828152600560205260409020600c015460ff166008811115610f8857610f88613c8b565b14610fa55760405162461bcd60e51b81526004016102fe90613dc9565b6000818152600560205260409020600a015442106110055760405162461bcd60e51b815260206004820152601b60248201527f6f726465722073686f756c64206e6f742062652064656c61796564000000000060448201526064016102fe565b6007546040805163026be4bf60e41b815290516000926001600160a01b0316916326be4bf09160048083019260209291908290030181865afa15801561104f573d6000803e3d6000fd5b505050506040513d601f19601f820116820180604052508101906110739190613e62565b9050600060045460026110869190613efe565b61109190600a613ff5565b6000848152600560205260409020600d8101546007909101546110b49190614001565b6110be9190614018565b6000848152600560205260409020600101549091506001600160a01b03166110e4613329565b6001600160a01b03160361139a576000838152600560205260408120600e81015460079091015460649161111791614001565b6111219190614018565b600085815260056020526040902060028101546008909101549192506001600160a01b038086169263a9059cbb929091169061115e908590613efe565b6040518363ffffffff1660e01b815260040161117b92919061403a565b6020604051808303816000875af115801561119a573d6000803e3d6000fd5b505050506040513d601f19601f820116820180604052508101906111be9190613ecb565b50600084815260056020526040902060018101546007909101546001600160a01b038086169263a9059cbb9291169085906111fa908690614053565b6112049190614053565b6040518363ffffffff1660e01b815260040161122192919061403a565b6020604051808303816000875af1158015611240573d6000803e3d6000fd5b505050506040513d601f19601f820116820180604052508101906112649190613ecb565b50826001600160a01b031663a9059cbb600760009054906101000a90046001600160a01b03166001600160a01b031663e00246046040518163ffffffff1660e01b8152600401602060405180830381865afa1580156112c7573d6000803e3d6000fd5b505050506040513d601f19601f820116820180604052508101906112eb9190613e62565b846040518363ffffffff1660e01b815260040161130992919061403a565b6020604051808303816000875af1158015611328573d6000803e3d6000fd5b505050506040513d601f19601f8201168201806040525081019061134c9190613ecb565b5060008481526005602052604090819020600c01805460ff1916600790811790915590516000805160206141ff8339815191529161138c91879190613df4565b60405180910390a150505050565b6000838152600560205260409020600201546001600160a01b03166113bd613329565b6001600160a01b031603611794576000838152600560205260408120600f8101546008909101546064916113f091614001565b6113fa9190614018565b600085815260056020526040902060018101546007909101549192506001600160a01b038086169263a9059cbb9290911690611437908590613efe565b6040518363ffffffff1660e01b815260040161145492919061403a565b6020604051808303816000875af1158015611473573d6000803e3d6000fd5b505050506040513d601f19601f820116820180604052508101906114979190613ecb565b5060008481526005602052604090206008015482906114b7908390614053565b10156115c657826001600160a01b031663a9059cbb600760009054906101000a90046001600160a01b03166001600160a01b031663e00246046040518163ffffffff1660e01b8152600401602060405180830381865afa15801561151f573d6000803e3d6000fd5b505050506040513d601f19601f820116820180604052508101906115439190613e62565b600087815260056020526040902060080154611560908590614053565b6040518363ffffffff1660e01b815260040161157d92919061403a565b6020604051808303816000875af115801561159c573d6000803e3d6000fd5b505050506040513d601f19601f820116820180604052508101906115c09190613ecb565b50611755565b600084815260056020526040902060028101546008909101546001600160a01b038086169263a9059cbb929116908590611601908690614053565b61160b9190614053565b6040518363ffffffff1660e01b815260040161162892919061403a565b6020604051808303816000875af1158015611647573d6000803e3d6000fd5b505050506040513d601f19601f8201168201806040525081019061166b9190613ecb565b50826001600160a01b031663a9059cbb600760009054906101000a90046001600160a01b03166001600160a01b031663e00246046040518163ffffffff1660e01b8152600401602060405180830381865afa1580156116ce573d6000803e3d6000fd5b505050506040513d601f19601f820116820180604052508101906116f29190613e62565b846040518363ffffffff1660e01b815260040161171092919061403a565b6020604051808303816000875af115801561172f573d6000803e3d6000fd5b505050506040513d601f19601f820116820180604052508101906117539190613ecb565b505b60008481526005602052604090819020600c01805460ff1916600890811790915590516000805160206141ff8339815191529161138c91879190613df4565b505050565b6117c46040518060800160405280600081526020016000815260200160008152602001600081525090565b506001600160a01b0316600090815260026020818152604092839020835160808101855281548152600182015492810192909252918201549281019290925260030154606082015290565b60008281526006602090815260408083206001600160a01b03851684529091529020545b92915050565b60006060808280808361186c7f000000000000000000000000000000000000000000000000000000000000000083613548565b6118977f00000000000000000000000000000000000000000000000000000000000000006001613548565b60408051600080825260208201909252600f60f81b9b939a50919850469750309650945092509050565b6000896001600160a01b03166118d5613329565b6001600160a01b03161461192b5760405162461bcd60e51b815260206004820152601d60248201527f6f72646572206d75737420626520637265617465642062792073656c6600000060448201526064016102fe565b600061193660035490565b6000818152600560205260409020600101549091506001600160a01b0316156119975760405162461bcd60e51b81526020600482015260136024820152721bdc99195c88185b1c9958591e48195e1a5cdd606a1b60448201526064016102fe565b8060056000838152602001908152602001600020600001819055508a6005600083815260200190815260200160002060010160006101000a8154816001600160a01b0302191690836001600160a01b03160217905550896005600083815260200190815260200160002060030181905550886005600083815260200190815260200160002060040181905550876005600083815260200190815260200160002060050181905550866005600083815260200190815260200160002060060181905550600760009054906101000a90046001600160a01b03166001600160a01b03166304366b586040518163ffffffff1660e01b8152600401602060405180830381865afa158015611aac573d6000803e3d6000fd5b505050506040513d601f19601f82011682018060405250810190611ad09190613e49565b611ada9088614018565b60008281526005602090815260409182902060080192909255600754815163171f189560e21b815291516001600160a01b0390911692635c7c625492600480820193918290030181865afa158015611b36573d6000803e3d6000fd5b505050506040513d601f19601f82011682018060405250810190611b5a9190613e49565b611b649042613efe565b6000828152600560205260408120600b0191909155869003611ba3576000818152600560205260409020600c01805461ff001916610100179055611c50565b600081815260056020908152604091829020600c01805461ff00191690556007548251635e7fa78f60e11b815292516001600160a01b039091169263bcff4f1e9260048083019391928290030181865afa158015611c05573d6000803e3d6000fd5b505050506040513d601f19601f82011682018060405250810190611c299190613e49565b611c339087614053565b6000828152600560205260409020600a8101919091556009018690555b6000818152600560205260408120600c01805463ffff00001916620100008815150263ff0000001916176301000000871515021780825560ff19166001830217905550600760009054906101000a90046001600160a01b03166001600160a01b0316636ea8bc106040518163ffffffff1660e01b8152600401602060405180830381865afa158015611ce6573d6000803e3d6000fd5b505050506040513d601f19601f82011682018060405250810190611d0a9190613e49565b600082815260056020908152604091829020600d01929092556007548151633c6efe9360e21b815291516001600160a01b039091169263f1bbfa4c92600480820193918290030181865afa158015611d66573d6000803e3d6000fd5b505050506040513d601f19601f82011682018060405250810190611d8a9190613e49565b600082815260056020908152604091829020600e01929092556007548151639c9b9edd60e01b815291516001600160a01b0390911692639c9b9edd92600480820193918290030181865afa158015611de6573d6000803e3d6000fd5b505050506040513d601f19601f82011682018060405250810190611e0a9190613e49565b600082815260056020526040808220600f019290925590517f5b5a3561346cda3fa76bc9aed5b4034bbb9989070dd68e9f25c2dd080082f1b691611e5091849190613df4565b60405180910390a160038054906000611e6883614066565b90915550909b9a5050505050505050505050565b6000818152600560205260409020600101546001600160a01b0316611e9f613329565b6001600160a01b031614611ef55760405162461bcd60e51b815260206004820181905260248201527f6f6e6c7920736869707065722063616e2063616e63656c2062792064656c617960448201526064016102fe565b60016000828152600560205260409020600c015460ff166008811115611f1d57611f1d613c8b565b14611f3a5760405162461bcd60e51b81526004016102fe90613dc9565b6000818152600560205260409020600a01544211611f915760405162461bcd60e51b81526020600482015260146024820152731bdc99195c881a5cc81b9bdd0819195b185e595960621b60448201526064016102fe565b6007546040805163026be4bf60e41b815290516000926001600160a01b0316916326be4bf09160048083019260209291908290030181865afa158015611fdb573d6000803e3d6000fd5b505050506040513d601f19601f82011682018060405250810190611fff9190613e62565b6000838152600560205260408120600f810154600890910154929350909160649161202991614001565b6120339190614018565b9050600060045460026120469190613efe565b61205190600a613ff5565b6000858152600560205260409020600d8101546007909101546120749190614001565b61207e9190614018565b6000858152600560205260409020600c8101805460ff1916600417905560018101546007909101549192506001600160a01b038581169263a9059cbb9291909116906120cb908690613efe565b6040518363ffffffff1660e01b81526004016120e892919061403a565b6020604051808303816000875af1158015612107573d6000803e3d6000fd5b505050506040513d601f19601f8201168201806040525081019061212b9190613ecb565b50600084815260056020526040902060080154819061214b908490614053565b101561225a57826001600160a01b031663a9059cbb600760009054906101000a90046001600160a01b03166001600160a01b031663e00246046040518163ffffffff1660e01b8152600401602060405180830381865afa1580156121b3573d6000803e3d6000fd5b505050506040513d601f19601f820116820180604052508101906121d79190613e62565b6000878152600560205260409020600801546121f4908690614053565b6040518363ffffffff1660e01b815260040161221192919061403a565b6020604051808303816000875af1158015612230573d6000803e3d6000fd5b505050506040513d601f19601f820116820180604052508101906122549190613ecb565b506123e9565b600084815260056020526040902060028101546008909101546001600160a01b038086169263a9059cbb929116908490612295908790614053565b61229f9190614053565b6040518363ffffffff1660e01b81526004016122bc92919061403a565b6020604051808303816000875af11580156122db573d6000803e3d6000fd5b505050506040513d601f19601f820116820180604052508101906122ff9190613ecb565b50826001600160a01b031663a9059cbb600760009054906101000a90046001600160a01b03166001600160a01b031663e00246046040518163ffffffff1660e01b8152600401602060405180830381865afa158015612362573d6000803e3d6000fd5b505050506040513d601f19601f820116820180604052508101906123869190613e62565b836040518363ffffffff1660e01b81526004016123a492919061403a565b6020604051808303816000875af11580156123c3573d6000803e3d6000fd5b505050506040513d601f19601f820116820180604052508101906123e79190613ecb565b505b6000848152600560209081526040808320600101546001600160a01b0316835260029182905282200180549161241e83614066565b909155505060008481526005602090815260408083206002908101546001600160a01b031684529182905282200180549161245883614066565b91905055506000805160206141ff83398151915284600460405161138c929190613df4565b6000818152600560205260409020600101546001600160a01b03166124a0613329565b6001600160a01b0316146124f65760405162461bcd60e51b815260206004820181905260248201527f6f6e6c7920736869707065722063616e206578706972652064656c697665727960448201526064016102fe565b60026000828152600560205260409020600c015460ff16600881111561251e5761251e613c8b565b1461255f5760405162461bcd60e51b81526020600482015260116024820152701bdc99195c881b9bdd081cdd185c9d1959607a1b60448201526064016102fe565b60008181526005602052604090206009015442116125b65760405162461bcd60e51b81526020600482015260146024820152731bdc99195c881a5cc81b9bdd08195e1c1a5c995960621b60448201526064016102fe565b6007546040805163026be4bf60e41b815290516000926001600160a01b0316916326be4bf09160048083019260209291908290030181865afa158015612600573d6000803e3d6000fd5b505050506040513d601f19601f820116820180604052508101906126249190613e62565b9050600060045460026126379190613efe565b61264290600a613ff5565b6000848152600560205260409020600d8101546007909101546126659190614001565b61266f9190614018565b60008481526005602081905260408220600c8101805460ff1916909217909155600881015460079091015492935090916126a99190613efe565b60008581526005602052604090206008015490915082101561284257826001600160a01b031663a9059cbb600760009054906101000a90046001600160a01b03166001600160a01b031663e00246046040518163ffffffff1660e01b8152600401602060405180830381865afa158015612727573d6000803e3d6000fd5b505050506040513d601f19601f8201168201806040525081019061274b9190613e62565b846040518363ffffffff1660e01b815260040161276992919061403a565b6020604051808303816000875af1158015612788573d6000803e3d6000fd5b505050506040513d601f19601f820116820180604052508101906127ac9190613ecb565b506000848152600560205260409020600101546001600160a01b038085169163a9059cbb91166127dc8585614053565b6040518363ffffffff1660e01b81526004016127f992919061403a565b6020604051808303816000875af1158015612818573d6000803e3d6000fd5b505050506040513d601f19601f8201168201806040525081019061283c9190613ecb565b506128cb565b6000848152600560205260409081902060010154905163a9059cbb60e01b81526001600160a01b038581169263a9059cbb926128869290911690859060040161403a565b6020604051808303816000875af11580156128a5573d6000803e3d6000fd5b505050506040513d601f19601f820116820180604052508101906128c99190613ecb565b505b6000848152600560209081526040808320600101546001600160a01b031683526002909152812060030180549161290183614066565b909155505060008481526005602090815260408083206002908101546001600160a01b03168452909152812060030180549161293c83614066565b91905055507fb34b6b7a2bd9072b2b4e911ac8d280570402edf98d5cae7662cc003e2496ecc184600560405161138c929190613df4565b6000818152600560205260409020600201546001600160a01b0316612996613329565b6001600160a01b0316146129f75760405162461bcd60e51b815260206004820152602260248201527f6f6e6c7920636172726965722063616e20636f6d706c6574652064656c697665604482015261727960f01b60648201526084016102fe565b60026000828152600560205260409020600c015460ff166008811115612a1f57612a1f613c8b565b14612a605760405162461bcd60e51b81526020600482015260116024820152701bdc99195c881b9bdd081cdd185c9d1959607a1b60448201526064016102fe565b6000818152600560205260409020600c01546301000000900460ff1615612ac05760405162461bcd60e51b81526020600482015260146024820152736e6f6e2d436f6e7461637420636f6d706c65746560601b60448201526064016102fe565b6007546040805163026be4bf60e41b815290516000926001600160a01b0316916326be4bf09160048083019260209291908290030181865afa158015612b0a573d6000803e3d6000fd5b505050506040513d601f19601f82011682018060405250810190612b2e9190613e62565b905060006004546002612b419190613efe565b612b4c90600a613ff5565b6000848152600560205260409020600d810154600790910154612b6f9190614001565b612b799190614018565b6000848152600560205260408120600c8101805460ff1916600317905560088101546007909101549293509091612bb09190613efe565b905081811115612d3757826001600160a01b031663a9059cbb600760009054906101000a90046001600160a01b03166001600160a01b031663e00246046040518163ffffffff1660e01b8152600401602060405180830381865afa158015612c1c573d6000803e3d6000fd5b505050506040513d601f19601f82011682018060405250810190612c409190613e62565b846040518363ffffffff1660e01b8152600401612c5e92919061403a565b6020604051808303816000875af1158015612c7d573d6000803e3d6000fd5b505050506040513d601f19601f82011682018060405250810190612ca19190613ecb565b506000848152600560205260409020600201546001600160a01b038085169163a9059cbb9116612cd18585614053565b6040518363ffffffff1660e01b8152600401612cee92919061403a565b6020604051808303816000875af1158015612d0d573d6000803e3d6000fd5b505050506040513d601f19601f82011682018060405250810190612d319190613ecb565b50612dc0565b6000848152600560205260409081902060020154905163a9059cbb60e01b81526001600160a01b038581169263a9059cbb92612d7b9290911690859060040161403a565b6020604051808303816000875af1158015612d9a573d6000803e3d6000fd5b505050506040513d601f19601f82011682018060405250810190612dbe9190613ecb565b505b6000848152600560209081526040808320600101546001600160a01b0316835260029091528120805491612df383614066565b909155505060008481526005602090815260408083206002908101546001600160a01b031684529091528120600101805491612e2e83614066565b9190505550600760009054906101000a90046001600160a01b03166001600160a01b03166371d433146040518163ffffffff1660e01b8152600401602060405180830381865afa158015612e86573d6000803e3d6000fd5b505050506040513d601f19601f82011682018060405250810190612eaa9190613e62565b600085815260056020908152604091829020600201546007548351631fa6cf7960e11b815293516001600160a01b03958616956326bd07aa9593811694921692633f4d9ef29260048083019391928290030181865afa158015612f11573d6000803e3d6000fd5b505050506040513d601f19601f82011682018060405250810190612f359190613e62565b6040516001600160e01b031960e085901b1681526001600160a01b03928316600482015291166024820152604401600060405180830381600087803b158015612f7d57600080fd5b505af1158015612f91573d6000803e3d6000fd5b50505050600760009054906101000a90046001600160a01b03166001600160a01b03166371d433146040518163ffffffff1660e01b8152600401602060405180830381865afa158015612fe8573d6000803e3d6000fd5b505050506040513d601f19601f8201168201806040525081019061300c9190613e62565b60008581526005602090815260409182902060010154600754835163e847dd8360e01b815293516001600160a01b03958616956326bd07aa959381169492169263e847dd839260048083019391928290030181865afa158015613073573d6000803e3d6000fd5b505050506040513d601f19601f820116820180604052508101906130979190613e62565b6040516001600160e01b031960e085901b1681526001600160a01b03928316600482015291166024820152604401600060405180830381600087803b1580156130df57600080fd5b505af11580156130f3573d6000803e3d6000fd5b505050507f7faabd98924c5226436962146935300b9b60c52dc902fd6d545e4d3807ca547384600360405161138c929190613df4565b6040805161026081018252600080825260208201819052918101829052606081018290526080810182905260a0810182905260c0810182905260e08101829052610100810182905261012081018290526101408101829052610160810182905261018081018290526101a081018290526101c081018290526101e08101829052610200810182905261022081018290526102408101919091526000828152600560208181526040928390208351610260810185528154815260018201546001600160a01b039081169382019390935260028201549092169382019390935260038301546060820152600483015460808201529082015460a0820152600682015460c0820152600782015460e08201526008808301546101008301526009830154610120830152600a830154610140830152600b830154610160830152600c83015491929161018084019160ff9091169081111561328857613288613c8b565b600881111561329957613299613c8b565b8152600c82015460ff610100820481161515602084015262010000820481161515604084015263010000009091041615156060820152600d8201546080820152600e82015460a0820152600f9091015460c09091015292915050565b60006020835110156133115761330a836135ec565b9050611833565b8161331c8482614107565b5060ff9050611833565b90565b60007f00000000000000000000000000000000000000000000000000000000000000006001600160a01b03163303613368575060131936013560601c90565b503390565b6000306001600160a01b037f0000000000000000000000000000000000000000000000000000000000000000161480156133c657507f000000000000000000000000000000000000000000000000000000000000000046145b156133f057507f000000000000000000000000000000000000000000000000000000000000000090565b610631604080517f8b73c3c69bb8fe3d512ecc4cf759cc79239f7b179b0ffacaa9a75d522b39400f60208201527f0000000000000000000000000000000000000000000000000000000000000000918101919091527f000000000000000000000000000000000000000000000000000000000000000060608201524660808201523060a082015260009060c00160405160208183030381529060405280519060200120905090565b60006118336134a561336d565b8360405161190160f01b8152600281019290925260228201526042902090565b60008082516041036134fb5760208301516040840151606085015160001a6134ef8782858561362a565b94509450505050613503565b506000905060025b9250929050565b60008281526006602090815260408083206001600160a01b038516845290915281208054918291829161353c83614066565b91905055505092915050565b606060ff831461355b5761330a836136ee565b8180546135679061407f565b80601f01602080910402602001604051908101604052809291908181526020018280546135939061407f565b80156135e05780601f106135b5576101008083540402835291602001916135e0565b820191906000526020600020905b8154815290600101906020018083116135c357829003601f168201915b50505050509050611833565b600080829050601f81511115613617578260405163305a27a960e01b81526004016102fe91906141c7565b8051613622826141da565b179392505050565b6000807f7fffffffffffffffffffffffffffffff5d576e7357a4501ddfe92f46681b20a083111561366157506000905060036136e5565b6040805160008082526020820180845289905260ff881692820192909252606081018690526080810185905260019060a0016020604051602081039080840390855afa1580156136b5573d6000803e3d6000fd5b5050604051601f1901519150506001600160a01b0381166136de576000600192509250506136e5565b9150600090505b94509492505050565b606060006136fb8361372d565b604080516020808252818301909252919250600091906020820181803683375050509182525060208101929092525090565b600060ff8216601f81111561183357604051632cd44ac360e21b815260040160405180910390fd5b60006020828403121561376757600080fd5b5035919050565b6001600160a01b038116811461378357600080fd5b50565b80356137918161376e565b919050565b634e487b7160e01b600052604160045260246000fd5b604051610160810167ffffffffffffffff811182821017156137d0576137d0613796565b60405290565b600061016082840312156137e957600080fd5b6137f16137ac565b90508135815261380360208301613786565b602082015261381460408301613786565b6040820152606082013560608201526080820135608082015260a082013560a082015260c082013560c082015260e082013560e082015261010080830135818301525061012080830135818301525061014080830135818301525092915050565b60008060006101a0848603121561388b57600080fd5b83359250602084013561389d8161376e565b91506138ac85604086016137d6565b90509250925092565b600067ffffffffffffffff808411156138d0576138d0613796565b604051601f8501601f19908116603f011681019082821181831017156138f8576138f8613796565b8160405280935085815286868601111561391157600080fd5b858560208301376000602087830101525050509392505050565b600082601f83011261393c57600080fd5b610620838335602085016138b5565b600060a0828403121561395d57600080fd5b60405160a0810181811067ffffffffffffffff8211171561398057613980613796565b60405290508082356139918161376e565b815260208301356139a18161376e565b806020830152506040830135604082015260608301356060820152608083013560808201525092915050565b6000806000806000806000610320888a0312156139e957600080fd5b873596506139fa8960208a016137d6565b955061018088013567ffffffffffffffff80821115613a1857600080fd5b613a248b838c0161392b565b9650613a348b6101a08c0161394b565b95506102408a0135915080821115613a4b57600080fd5b613a578b838c0161392b565b9450613a678b6102608c0161394b565b93506103008a0135915080821115613a7e57600080fd5b50613a8b8a828b0161392b565b91505092959891949750929550565b600060208284031215613aac57600080fd5b81356106208161376e565b60008060408385031215613aca57600080fd5b823591506020830135613adc8161376e565b809150509250929050565b6000815180845260005b81811015613b0d57602081850181015186830182015201613af1565b506000602082860101526020601f19601f83011685010191505092915050565b60ff60f81b881681526000602060e081840152613b4d60e084018a613ae7565b8381036040850152613b5f818a613ae7565b606085018990526001600160a01b038816608086015260a0850187905284810360c0860152855180825283870192509083019060005b81811015613bb157835183529284019291840191600101613b95565b50909c9b505050505050505050505050565b801515811461378357600080fd5b60008060008060008060008060006101208a8c031215613bf057600080fd5b8935613bfb8161376e565b985060208a0135975060408a0135965060608a0135955060808a0135945060a08a0135935060c08a0135613c2e81613bc3565b925060e08a0135613c3e81613bc3565b91506101008a013567ffffffffffffffff811115613c5b57600080fd5b8a01601f81018c13613c6c57600080fd5b613c7b8c8235602084016138b5565b9150509295985092959850929598565b634e487b7160e01b600052602160045260246000fd5b60098110613cbf57634e487b7160e01b600052602160045260246000fd5b9052565b81518152602080830151610260830191613ce7908401826001600160a01b03169052565b506040830151613d0260408401826001600160a01b03169052565b50606083015160608301526080830151608083015260a083015160a083015260c083015160c083015260e083015160e083015261010080840151818401525061012080840151818401525061014080840151818401525061016080840151818401525061018080840151613d7882850182613ca1565b50506101a0838101511515908301526101c0808401511515908301526101e0808401511515908301526102008084015190830152610220808401519083015261024092830151929091019190915290565b6020808252601190820152701bdc99195c881b9bdd081b585d18da1959607a1b604082015260600190565b828152604081016106206020830184613ca1565b60208082526021908201527f6f726465722073686f756c642062652063616e63656c656420627920757365726040820152607360f81b606082015260800190565b600060208284031215613e5b57600080fd5b5051919050565b600060208284031215613e7457600080fd5b81516106208161376e565b8681526001600160a01b03868116602083015285166040820152606081018490526080810183905260c060a08201819052600090613ebf90830184613ae7565b98975050505050505050565b600060208284031215613edd57600080fd5b815161062081613bc3565b634e487b7160e01b600052601160045260246000fd5b8082018082111561183357611833613ee8565b600181815b80851115613f4c578160001904821115613f3257613f32613ee8565b80851615613f3f57918102915b93841c9390800290613f16565b509250929050565b600082613f6357506001611833565b81613f7057506000611833565b8160018114613f865760028114613f9057613fac565b6001915050611833565b60ff841115613fa157613fa1613ee8565b50506001821b611833565b5060208310610133831016604e8410600b8410161715613fcf575081810a611833565b613fd98383613f11565b8060001904821115613fed57613fed613ee8565b029392505050565b60006106208383613f54565b808202811582820484141761183357611833613ee8565b60008261403557634e487b7160e01b600052601260045260246000fd5b500490565b6001600160a01b03929092168252602082015260400190565b8181038181111561183357611833613ee8565b60006001820161407857614078613ee8565b5060010190565b600181811c9082168061409357607f821691505b6020821081036140b357634e487b7160e01b600052602260045260246000fd5b50919050565b601f82111561179457600081815260208120601f850160051c810160208610156140e05750805b601f850160051c820191505b818110156140ff578281556001016140ec565b505050505050565b815167ffffffffffffffff81111561412157614121613796565b6141358161412f845461407f565b846140b9565b602080601f83116001811461416a57600084156141525750858301515b600019600386901b1c1916600185901b1785556140ff565b600085815260208120601f198616915b828110156141995788860151825594840194600190910190840161417a565b50858210156141b75787850151600019600388901b60f8161c191681555b5050505050600190811b01905550565b6020815260006106206020830184613ae7565b805160208083015191908110156140b35760001960209190910360031b1b1691905056fe94c1b06cb6aaf2113ed07cb0ceba554f56a961ce7ceeb0a2353571fb38e5d4c4a2646970667358221220f44aea832a6179c096194365786e498c2c3b33a349a739941081a8c71cf74f5164736f6c63430008120033",
  "linkReferences": {},
  "deployedLinkReferences": {}
}