{
  "_format": "hh-sol-artifact-1",
  "contractName": "FxERC20RootTunnel",
  "sourceName": "contracts/examples/erc20-transfer/FxERC20RootTunnel.sol",
  "abi": [
    {
      "inputs": [
        {
          "internalType": "address",
          "name": "_checkpointManager",
          "type": "address"
        },
        {
          "internalType": "address",
          "name": "_fxRoot",
          "type": "address"
        },
        {
          "internalType": "address",
          "name": "_fxERC20Token",
          "type": "address"
        }
      ],
      "stateMutability": "nonpayable",
      "type": "constructor"
    },
    {
      "anonymous": false,
      "inputs": [
        {
          "indexed": true,
          "internalType": "address",
          "name": "rootToken",
          "type": "address"
        },
        {
          "indexed": true,
          "internalType": "address",
          "name": "depositor",
          "type": "address"
        },
        {
          "indexed": true,
          "internalType": "address",
          "name": "userAddress",
          "type": "address"
        },
        {
          "indexed": false,
          "internalType": "uint256",
          "name": "amount",
          "type": "uint256"
        }
      ],
      "name": "FxDepositERC20",
      "type": "event"
    },
    {
      "anonymous": false,
      "inputs": [
        {
          "indexed": true,
          "internalType": "address",
          "name": "rootToken",
          "type": "address"
        },
        {
          "indexed": true,
          "internalType": "address",
          "name": "childToken",
          "type": "address"
        },
        {
          "indexed": true,
          "internalType": "address",
          "name": "userAddress",
          "type": "address"
        },
        {
          "indexed": false,
          "internalType": "uint256",
          "name": "amount",
          "type": "uint256"
        }
      ],
      "name": "FxWithdrawERC20",
      "type": "event"
    },
    {
      "anonymous": false,
      "inputs": [
        {
          "indexed": true,
          "internalType": "address",
          "name": "user",
          "type": "address"
        },
        {
          "indexed": false,
          "internalType": "uint256",
          "name": "amount",
          "type": "uint256"
        },
        {
          "indexed": false,
          "internalType": "uint256",
          "name": "nonce",
          "type": "uint256"
        }
      ],
      "name": "L1Deposited",
      "type": "event"
    },
    {
      "anonymous": false,
      "inputs": [
        {
          "indexed": true,
          "internalType": "address",
          "name": "rootToken",
          "type": "address"
        },
        {
          "indexed": true,
          "internalType": "address",
          "name": "childToken",
          "type": "address"
        }
      ],
      "name": "TokenMappedERC20",
      "type": "event"
    },
    {
      "inputs": [],
      "name": "DEPOSIT",
      "outputs": [
        {
          "internalType": "bytes32",
          "name": "",
          "type": "bytes32"
        }
      ],
      "stateMutability": "view",
      "type": "function"
    },
    {
      "inputs": [],
      "name": "MAP_TOKEN",
      "outputs": [
        {
          "internalType": "bytes32",
          "name": "",
          "type": "bytes32"
        }
      ],
      "stateMutability": "view",
      "type": "function"
    },
    {
      "inputs": [],
      "name": "SEND_MESSAGE_EVENT_SIG",
      "outputs": [
        {
          "internalType": "bytes32",
          "name": "",
          "type": "bytes32"
        }
      ],
      "stateMutability": "view",
      "type": "function"
    },
    {
      "inputs": [],
      "name": "checkpointManager",
      "outputs": [
        {
          "internalType": "contract ICheckpointManager",
          "name": "",
          "type": "address"
        }
      ],
      "stateMutability": "view",
      "type": "function"
    },
    {
      "inputs": [],
      "name": "childTokenTemplateCodeHash",
      "outputs": [
        {
          "internalType": "bytes32",
          "name": "",
          "type": "bytes32"
        }
      ],
      "stateMutability": "view",
      "type": "function"
    },
    {
      "inputs": [
        {
          "internalType": "bytes32",
          "name": "salt",
          "type": "bytes32"
        },
        {
          "internalType": "bytes32",
          "name": "bytecodeHash",
          "type": "bytes32"
        },
        {
          "internalType": "address",
          "name": "deployer",
          "type": "address"
        }
      ],
      "name": "computedCreate2Address",
      "outputs": [
        {
          "internalType": "address",
          "name": "",
          "type": "address"
        }
      ],
      "stateMutability": "pure",
      "type": "function"
    },
    {
      "inputs": [
        {
          "internalType": "address",
          "name": "rootToken",
          "type": "address"
        },
        {
          "internalType": "address",
          "name": "user",
          "type": "address"
        },
        {
          "internalType": "uint256",
          "name": "amount",
          "type": "uint256"
        },
        {
          "internalType": "bytes",
          "name": "data",
          "type": "bytes"
        }
      ],
      "name": "deposit",
      "outputs": [],
      "stateMutability": "nonpayable",
      "type": "function"
    },
    {
      "inputs": [
        {
          "internalType": "address",
          "name": "",
          "type": "address"
        }
      ],
      "name": "depositNonceaaa",
      "outputs": [
        {
          "internalType": "uint256",
          "name": "",
          "type": "uint256"
        }
      ],
      "stateMutability": "view",
      "type": "function"
    },
    {
      "inputs": [],
      "name": "fxChildTunnel",
      "outputs": [
        {
          "internalType": "address",
          "name": "",
          "type": "address"
        }
      ],
      "stateMutability": "view",
      "type": "function"
    },
    {
      "inputs": [],
      "name": "fxRoot",
      "outputs": [
        {
          "internalType": "contract IFxStateSender",
          "name": "",
          "type": "address"
        }
      ],
      "stateMutability": "view",
      "type": "function"
    },
    {
      "inputs": [
        {
          "internalType": "address",
          "name": "rootToken",
          "type": "address"
        },
        {
          "internalType": "address",
          "name": "trustedForwarder",
          "type": "address"
        },
        {
          "internalType": "address",
          "name": "orderContract",
          "type": "address"
        }
      ],
      "name": "mapToken",
      "outputs": [],
      "stateMutability": "nonpayable",
      "type": "function"
    },
    {
      "inputs": [
        {
          "internalType": "bytes32",
          "name": "",
          "type": "bytes32"
        }
      ],
      "name": "processedExits",
      "outputs": [
        {
          "internalType": "bool",
          "name": "",
          "type": "bool"
        }
      ],
      "stateMutability": "view",
      "type": "function"
    },
    {
      "inputs": [
        {
          "internalType": "bytes32",
          "name": "l2Hash",
          "type": "bytes32"
        },
        {
          "internalType": "bytes",
          "name": "inputData",
          "type": "bytes"
        }
      ],
      "name": "receiveMessage",
      "outputs": [],
      "stateMutability": "nonpayable",
      "type": "function"
    },
    {
      "inputs": [
        {
          "internalType": "address",
          "name": "",
          "type": "address"
        }
      ],
      "name": "rootToChildTokens",
      "outputs": [
        {
          "internalType": "address",
          "name": "",
          "type": "address"
        }
      ],
      "stateMutability": "view",
      "type": "function"
    },
    {
      "inputs": [
        {
          "internalType": "address",
          "name": "_fxChildTunnel",
          "type": "address"
        }
      ],
      "name": "setFxChildTunnel",
      "outputs": [],
      "stateMutability": "nonpayable",
      "type": "function"
    }
  ],
  "bytecode": "0x60a06040523480156200001157600080fd5b5060405162002ade38038062002ade833981016040819052620000349162000106565b600180546001600160a01b038086166001600160a01b0319928316179092556000805492851692909116919091179055620000d48160408051693d602d80600a3d3981f360b01b602082015269363d3d373d3d3d363d7360b01b602a82015260609290921b6001600160601b03191660348301526e5af43d82803e903d91602b57fd5bf360881b6048830152805160378184030181526057909201905290565b80516020909101206080525062000150915050565b80516001600160a01b03811681146200010157600080fd5b919050565b6000806000606084860312156200011c57600080fd5b6200012784620000e9565b92506200013760208501620000e9565b91506200014760408501620000e9565b90509250925092565b60805161296b62000173600039600081816101810152610549015261296b6000f3fe608060405234801561001057600080fd5b50600436106100f55760003560e01c8063972c492811610097578063de9b771f11610066578063de9b771f1461027e578063e151413914610291578063e3da69d4146102a4578063e9c670ad146102c457600080fd5b8063972c49281461021e578063aea4e49e14610231578063c0857ba014610244578063d81c8e521461025757600080fd5b806369914b3e116100d357806369914b3e1461017c5780637337957f146101a3578063886a69ba146101ce57806388e70068146101f557600080fd5b806309505276146100fa5780630e387de61461010f578063607f2d4214610149575b600080fd5b61010d610108366004612262565b6102d7565b005b6101367f8c5261668696ce22758910d05bab8f186d6eb247ceac2af2e82c7dc17669b03681565b6040519081526020015b60405180910390f35b61016c6101573660046122ad565b60036020526000908152604090205460ff1681565b6040519015158152602001610140565b6101367f000000000000000000000000000000000000000000000000000000000000000081565b6101b66101b13660046122c6565b6105dc565b6040516001600160a01b039091168152602001610140565b6101367f2cef46a936bdc5b7e6e8c71aa04560c41cf7d88bb26901a7e7f4936ff02accad81565b6101b66102033660046122f4565b6004602052600090815260409020546001600160a01b031681565b6002546101b6906001600160a01b031681565b61010d61023f3660046122f4565b610639565b6001546101b6906001600160a01b031681565b6101367f87a7811f4bfedea3d341ad165680ae306b01aaeacc205d227629cf157dd9f82181565b6000546101b6906001600160a01b031681565b61010d61029f3660046123d6565b6106c7565b6101366102b23660046122f4565b60056020526000908152604090205481565b61010d6102d236600461241d565b6106e2565b6001600160a01b03838116600090815260046020526040902054161561034e5760405162461bcd60e51b815260206004820152602160248201527f46784552433230526f6f7454756e6e656c3a20414c52454144595f4d415050456044820152601160fa1b60648201526084015b60405180910390fd5b60008390506000816001600160a01b03166306fdde036040518163ffffffff1660e01b8152600401600060405180830381865afa158015610393573d6000803e3d6000fd5b505050506040513d6000823e601f3d908101601f191682016040526103bb91908101906124dd565b90506000826001600160a01b03166395d89b416040518163ffffffff1660e01b8152600401600060405180830381865afa1580156103fd573d6000803e3d6000fd5b505050506040513d6000823e601f3d908101601f1916820160405261042591908101906124dd565b90506000836001600160a01b031663313ce5676040518163ffffffff1660e01b8152600401602060405180830381865afa158015610467573d6000803e3d6000fd5b505050506040513d601f19601f8201168201806040525081019061048b9190612526565b905060007f2cef46a936bdc5b7e6e8c71aa04560c41cf7d88bb26901a7e7f4936ff02accad888585858b8b6040516020016104cb96959493929190612575565b60408051601f19818403018152908290526104e992916020016125cd565b6040516020818303038152906040529050610503816108c1565b6040805160608a901b6bffffffffffffffffffffffff191660208083019190915282516014818403018152603490920190925280519101206002546000906105779083907f0000000000000000000000000000000000000000000000000000000000000000906001600160a01b03166105dc565b6001600160a01b038b811660008181526004602052604080822080546001600160a01b031916948616948517905551939450919290917fc21cd413746aa9146d86960ed90847c18aa555d8dfd256e0aac3954c41e3cfe291a350505050505050505050565b604080516001600160f81b0319602080830191909152606084901b6bffffffffffffffffffffffff1916602183015260358201869052605580830186905283518084039091018152607590920190925280519101205b9392505050565b6002546001600160a01b0316156106a55760405162461bcd60e51b815260206004820152602a60248201527f467842617365526f6f7454756e6e656c3a204348494c445f54554e4e454c5f4160448201526913149150511657d4d15560b21b6064820152608401610345565b600280546001600160a01b0319166001600160a01b0392909216919091179055565b60006106d28261092c565b90506106dd81610c11565b505050565b6001600160a01b038481166000908152600460205260409020541661073f5760405162461bcd60e51b81526020600482015260136024820152723737ba1031b0b63632b21036b0b82a37b5b2b760691b6044820152606401610345565b6107546001600160a01b038516333085610d18565b6001600160a01b038316600081815260056020908152604091829020548251868152918201527febb9aabdbbd01cd9a1773ab6900988cac9b059df1c5030760d987d1ebd023c08910160405180910390a26001600160a01b038316600090815260056020526040812080547f87a7811f4bfedea3d341ad165680ae306b01aaeacc205d227629cf157dd9f821918791339188918891876107f3836125fc565b90915550604080516001600160a01b03968716602082015294861690850152939091166060830152608082015260a081019190915260c00160408051601f198184030181529082905261084992916020016125cd565b6040516020818303038152906040529050610863816108c1565b836001600160a01b0316336001600160a01b0316866001600160a01b03167f8a58355ceb4626422a66b0f36743672dde8507c6be664f0e5b9de8350a132159866040516108b291815260200190565b60405180910390a45050505050565b60005460025460405163b472047760e01b81526001600160a01b039283169263b4720477926108f7929116908590600401612615565b600060405180830381600087803b15801561091157600080fd5b505af1158015610925573d6000803e3d6000fd5b5050505050565b6060600061093983610d89565b9050600061094682610de8565b9050600061095383610e17565b905060008161096184610e40565b61096a86610ffe565b60405160200161097c93929190612639565b60408051601f1981840301815291815281516020928301206000818152600390935291205490915060ff1615610a005760405162461bcd60e51b8152602060048201526024808201527f4678526f6f7454756e6e656c3a20455849545f414c52454144595f50524f434560448201526314d4d15160e21b6064820152608401610345565b6000818152600360205260408120805460ff19166001179055610a228561101a565b90506000610a2f82611164565b9050610a3a816111f4565b6002546001600160a01b03908116911614610aa55760405162461bcd60e51b815260206004820152602560248201527f4678526f6f7454756e6e656c3a20494e56414c49445f46585f4348494c445f54604482015264155393915360da1b6064820152608401610345565b6000610ab08761121d565b9050610ad0610ac0846020015190565b87610aca8a611239565b84611255565b610b285760405162461bcd60e51b815260206004820152602360248201527f4678526f6f7454756e6e656c3a20494e56414c49445f524543454950545f505260448201526227a7a360e91b6064820152608401610345565b610b5685610b3589611508565b610b3e8a611524565b84610b488c611540565b610b518d61155c565b611578565b6000610b6183611698565b90507f8c5261668696ce22758910d05bab8f186d6eb247ceac2af2e82c7dc17669b036610b97610b928360006116d4565b61170c565b14610be45760405162461bcd60e51b815260206004820152601f60248201527f4678526f6f7454756e6e656c3a20494e56414c49445f5349474e4154555245006044820152606401610345565b6000610bef84611787565b806020019051810190610c0291906124dd565b9b9a5050505050505050505050565b60008060008084806020019051810190610c2b9190612666565b6001600160a01b038481166000908152600460205260409020549498509296509094509250848116911614610cb55760405162461bcd60e51b815260206004820152602a60248201527f46784552433230526f6f7454756e6e656c3a20494e56414c49445f4d415050496044820152691391d7d3d397d156125560b21b6064820152608401610345565b610cc96001600160a01b03851683836117a3565b816001600160a01b0316836001600160a01b0316856001600160a01b03167f1a77c658a097b28097b54b8acb928a569a3830a6cbed2de1f60001c0757eb0d6846040516108b291815260200190565b6040516001600160a01b0380851660248301528316604482015260648101829052610d839085906323b872dd60e01b906084015b60408051601f198184030181529190526020810180516001600160e01b03166001600160e01b0319909316929092179091526117d3565b50505050565b6040805160208101909152606081526000610dd3610dce8460408051808201825260008082526020918201528151808301909252825182529182019181019190915290565b6118a8565b60408051602081019091529081529392505050565b6060610e118260000151600881518110610e0457610e046126b9565b60200260200101516119be565b92915050565b6000610e118260000151600281518110610e3357610e336126b9565b602002602001015161170c565b60408051602081019091526000815281516060919015610e1157600080610e68600086611a5b565b60f81c90506001811480610e7f57508060ff166003145b15610f2757600185516002610e9491906126cf565b610e9e91906126e6565b67ffffffffffffffff811115610eb657610eb6612311565b6040519080825280601f01601f191660200182016040528015610ee0576020820181803683370190505b5092506000610ef0600187611a5b565b90508084600081518110610f0657610f066126b9565b60200101906001600160f81b031916908160001a9053506001925050610f8b565b600285516002610f3791906126cf565b610f4191906126e6565b67ffffffffffffffff811115610f5957610f59612311565b6040519080825280601f01601f191660200182016040528015610f83576020820181803683370190505b509250600091505b60ff82165b8351811015610ff557610fba610fa960ff8516836126e6565b610fb49060026126f9565b87611a5b565b848281518110610fcc57610fcc6126b9565b60200101906001600160f81b031916908160001a90535080610fed816125fc565b915050610f90565b50505092915050565b6000610e118260000151600981518110610e3357610e336126b9565b61103e60405180606001604052806060815260200160608152602001600081525090565b6110588260000151600681518110610e0457610e046126b9565b60208281018290526040805180820182526000808252908301528051808201909152825181529181019082015261108e81611adc565b156110a35761109c816118a8565b8252611150565b602082015180516000906110b9906001906126e6565b67ffffffffffffffff8111156110d1576110d1612311565b6040519080825280601f01601f1916602001820160405280156110fb576020820181803683370190505b50905060008083602101915082602001905061111982828551611b17565b604080518082018252600080825260209182015281518083019092528451825280850190820152611149906118a8565b8652505050505b61115983610ffe565b604083015250919050565b6040805160808101825260009181018281526060808301939093528152602081019190915260006111b283600001516003815181106111a5576111a56126b9565b60200260200101516118a8565b8360400151815181106111c7576111c76126b9565b6020026020010151905060405180604001604052808281526020016111eb836118a8565b90529392505050565b6000610e118260200151600081518110611210576112106126b9565b6020026020010151611ba2565b6000610e118260000151600581518110610e3357610e336126b9565b6060610e118260000151600781518110610e0457610e046126b9565b6000806112898460408051808201825260008082526020918201528151808301909252825182529182019181019190915290565b90506000611296826118a8565b9050606080856000806112a88b610e40565b905080516000036112c3576000975050505050505050611500565b60005b86518110156114f75781518311156112e957600098505050505050505050611500565b61130b8782815181106112fe576112fe6126b9565b6020026020010151611bbc565b95508580519060200120841461132c57600098505050505050505050611500565b6113418782815181106111a5576111a56126b9565b9450845160110361141357815183036113a0578c8051906020012061137286601081518110610e0457610e046126b9565b805190602001200361138f57600198505050505050505050611500565b600098505050505050505050611500565b60008284815181106113b4576113b46126b9565b016020015160f81c905060108111156113d95760009950505050505050505050611500565b6113fe868260ff16815181106113f1576113f16126b9565b6020026020010151611c3b565b945061140b6001856126f9565b9350506114e5565b845160020361138f57600061143e61143787600081518110610e0457610e046126b9565b8486611c69565b835190915061144d82866126f9565b036114a0578d8051906020012061147087600181518110610e0457610e046126b9565b805190602001200361148e5760019950505050505050505050611500565b60009950505050505050505050611500565b806000036114ba5760009950505050505050505050611500565b6114c481856126f9565b93506114dc866001815181106113f1576113f16126b9565b94506114e59050565b806114ef816125fc565b9150506112c6565b50505050505050505b949350505050565b6000610e118260000151600381518110610e3357610e336126b9565b6000610e118260000151600481518110610e3357610e336126b9565b6000610e118260000151600081518110610e3357610e336126b9565b6060610e118260000151600181518110610e0457610e046126b9565b6001546040516320a9cea560e11b815260048101849052600091829182916001600160a01b0316906341539d4a9060240160a060405180830381865afa1580156115c6573d6000803e3d6000fd5b505050506040513d601f19601f820116820180604052508101906115ea919061270c565b5093505092509250611641828a61160191906126e6565b6040805160208082018e90528183018d9052606082018c905260808083018c90528351808403909101815260a09092019092528051910120908587611d71565b61168d5760405162461bcd60e51b815260206004820152601c60248201527f4678526f6f7454756e6e656c3a20494e56414c49445f484541444552000000006044820152606401610345565b505050505050505050565b60408051602081019091526060815260405180602001604052806116cc84602001516001815181106111a5576111a56126b9565b905292915050565b604080518082019091526000808252602082015282518051839081106116fc576116fc6126b9565b6020026020010151905092915050565b80516000901580159061172157508151602110155b61172a57600080fd5b60006117398360200151611ed9565b9050600081846000015161174d91906126e6565b905060008083866020015161176291906126f9565b905080519150602083101561177e57826020036101000a820491505b50949350505050565b6060610e118260200151600281518110610e0457610e046126b9565b6040516001600160a01b0383166024820152604481018290526106dd90849063a9059cbb60e01b90606401610d4c565b6000611828826040518060400160405280602081526020017f5361666545524332303a206c6f772d6c6576656c2063616c6c206661696c6564815250856001600160a01b0316611f549092919063ffffffff16565b90508051600014806118495750808060200190518101906118499190612759565b6106dd5760405162461bcd60e51b815260206004820152602a60248201527f5361666545524332303a204552433230206f7065726174696f6e20646964206e6044820152691bdd081cdd58d8d9595960b21b6064820152608401610345565b60606118b382611adc565b6118bc57600080fd5b60006118c783611f63565b905060008167ffffffffffffffff8111156118e4576118e4612311565b60405190808252806020026020018201604052801561192957816020015b60408051808201909152600080825260208201528152602001906001900390816119025790505b509050600061193b8560200151611ed9565b856020015161194a91906126f9565b90506000805b848110156119b35761196183611fe8565b915060405180604001604052808381526020018481525084828151811061198a5761198a6126b9565b602090810291909101015261199f82846126f9565b9250806119ab816125fc565b915050611950565b509195945050505050565b80516060906119cc57600080fd5b60006119db8360200151611ed9565b905060008184600001516119ef91906126e6565b905060008167ffffffffffffffff811115611a0c57611a0c612311565b6040519080825280601f01601f191660200182016040528015611a36576020820181803683370190505b509050600081602001905061177e848760200151611a5491906126f9565b828561208c565b6000611a68600284612791565b15611aa257601082611a7b6002866127a5565b81518110611a8b57611a8b6126b9565b0160200151611a9d919060f81c6127b9565b611ad2565b601082611ab06002866127a5565b81518110611ac057611ac06126b9565b0160200151611ad2919060f81c6127db565b60f81b9392505050565b80516000908103611aef57506000919050565b6020820151805160001a9060c0821015611b0d575060009392505050565b5060019392505050565b80600003611b2457505050565b60208110611b5c5782518252611b3b6020846126f9565b9250611b486020836126f9565b9150611b556020826126e6565b9050611b24565b80600003611b6957505050565b60006001611b788360206126e6565b611b84906101006128e1565b611b8e91906126e6565b935183518516941916939093179091525050565b8051600090601514611bb357600080fd5b610e118261170c565b60606000826000015167ffffffffffffffff811115611bdd57611bdd612311565b6040519080825280601f01601f191660200182016040528015611c07576020820181803683370190505b5090508051600003611c195792915050565b6000816020019050611c34846020015182866000015161208c565b5092915050565b8051600090602114611c4c57600080fd5b60008083602001516001611c6091906126f9565b51949350505050565b60008080611c7686610e40565b90506000815167ffffffffffffffff811115611c9457611c94612311565b6040519080825280601f01601f191660200182016040528015611cbe576020820181803683370190505b509050845b8251611ccf90876126f9565b811015611d42576000878281518110611cea57611cea6126b9565b01602001516001600160f81b03191690508083611d0789856126e6565b81518110611d1757611d176126b9565b60200101906001600160f81b031916908160001a905350508080611d3a906125fc565b915050611cc3565b508080519060200120828051906020012003611d615781519250611d66565b600092505b509095945050505050565b600060208251611d819190612791565b15611dc55760405162461bcd60e51b8152602060048201526014602482015273092dcecc2d8d2c840e0e4dedecc40d8cadccee8d60631b6044820152606401610345565b600060208351611dd591906127a5565b9050611de28160026128e1565b8510611e285760405162461bcd60e51b81526020600482015260156024820152744c65616620696e64657820697320746f6f2062696760581b6044820152606401610345565b60008660205b85518111611ecb57858101519250611e47600289612791565b600003611e7f576040805160208101849052908101849052606001604051602081830303815290604052805190602001209150611eac565b60408051602081018590529081018390526060016040516020818303038152906040528051906020012091505b611eb76002896127a5565b9750611ec46020826126f9565b9050611e2e565b509094149695505050505050565b8051600090811a6080811015611ef25750600092915050565b60b8811080611f0d575060c08110801590611f0d575060f881105b15611f1b5750600192915050565b60c0811015611f4857611f30600160b86128ed565b611f3d9060ff16826126e6565b6106329060016126f9565b611f30600160f86128ed565b606061150084846000856120d1565b80516000908103611f7657506000919050565b600080611f868460200151611ed9565b8460200151611f9591906126f9565b9050600084600001518560200151611fad91906126f9565b90505b80821015611fdf57611fc182611fe8565b611fcb90836126f9565b915082611fd7816125fc565b935050611fb0565b50909392505050565b80516000908190811a60808110156120035760019150611c34565b60b8811015612029576120176080826126e6565b6120229060016126f9565b9150611c34565b60c08110156120565760b78103600185019450806020036101000a85510460018201810193505050611c34565b60f881101561206a5761201760c0826126e6565b60019390930151602084900360f7016101000a900490920160f5190192915050565b8060000361209957505050565b60208110611b5c57825182526120b06020846126f9565b92506120bd6020836126f9565b91506120ca6020826126e6565b9050612099565b6060824710156121325760405162461bcd60e51b815260206004820152602660248201527f416464726573733a20696e73756666696369656e742062616c616e636520666f6044820152651c8818d85b1b60d21b6064820152608401610345565b600080866001600160a01b0316858760405161214e9190612906565b60006040518083038185875af1925050503d806000811461218b576040519150601f19603f3d011682016040523d82523d6000602084013e612190565b606091505b50915091506121a1878383876121ac565b979650505050505050565b6060831561221b578251600003612214576001600160a01b0385163b6122145760405162461bcd60e51b815260206004820152601d60248201527f416464726573733a2063616c6c20746f206e6f6e2d636f6e74726163740000006044820152606401610345565b5081611500565b61150083838151156122305781518083602001fd5b8060405162461bcd60e51b81526004016103459190612922565b6001600160a01b038116811461225f57600080fd5b50565b60008060006060848603121561227757600080fd5b83356122828161224a565b925060208401356122928161224a565b915060408401356122a28161224a565b809150509250925092565b6000602082840312156122bf57600080fd5b5035919050565b6000806000606084860312156122db57600080fd5b833592506020840135915060408401356122a28161224a565b60006020828403121561230657600080fd5b81356106328161224a565b634e487b7160e01b600052604160045260246000fd5b604051601f8201601f1916810167ffffffffffffffff8111828210171561235057612350612311565b604052919050565b600067ffffffffffffffff82111561237257612372612311565b50601f01601f191660200190565b600082601f83011261239157600080fd5b81356123a461239f82612358565b612327565b8181528460208386010111156123b957600080fd5b816020850160208301376000918101602001919091529392505050565b600080604083850312156123e957600080fd5b82359150602083013567ffffffffffffffff81111561240757600080fd5b61241385828601612380565b9150509250929050565b6000806000806080858703121561243357600080fd5b843561243e8161224a565b9350602085013561244e8161224a565b925060408501359150606085013567ffffffffffffffff81111561247157600080fd5b61247d87828801612380565b91505092959194509250565b60005b838110156124a457818101518382015260200161248c565b50506000910152565b60006124bb61239f84612358565b90508281528383830111156124cf57600080fd5b610632836020830184612489565b6000602082840312156124ef57600080fd5b815167ffffffffffffffff81111561250657600080fd5b8201601f8101841361251757600080fd5b611500848251602084016124ad565b60006020828403121561253857600080fd5b815160ff8116811461063257600080fd5b60008151808452612561816020860160208601612489565b601f01601f19169290920160200192915050565b600060018060a01b03808916835260c0602084015261259760c0840189612549565b83810360408501526125a98189612549565b60ff97909716606085015250938416608083015250911660a0909101529392505050565b8281526040602082015260006115006040830184612549565b634e487b7160e01b600052601160045260246000fd5b60006001820161260e5761260e6125e6565b5060010190565b6001600160a01b038316815260406020820181905260009061150090830184612549565b83815260008351612651816020850160208801612489565b60209201918201929092526040019392505050565b6000806000806080858703121561267c57600080fd5b84516126878161224a565b60208601519094506126988161224a565b60408601519093506126a98161224a565b6060959095015193969295505050565b634e487b7160e01b600052603260045260246000fd5b8082028115828204841417610e1157610e116125e6565b81810381811115610e1157610e116125e6565b80820180821115610e1157610e116125e6565b600080600080600060a0868803121561272457600080fd5b85519450602086015193506040860151925060608601519150608086015161274b8161224a565b809150509295509295909350565b60006020828403121561276b57600080fd5b8151801515811461063257600080fd5b634e487b7160e01b600052601260045260246000fd5b6000826127a0576127a061277b565b500690565b6000826127b4576127b461277b565b500490565b600060ff8316806127cc576127cc61277b565b8060ff84160691505092915050565b600060ff8316806127ee576127ee61277b565b8060ff84160491505092915050565b600181815b8085111561283857816000190482111561281e5761281e6125e6565b8085161561282b57918102915b93841c9390800290612802565b509250929050565b60008261284f57506001610e11565b8161285c57506000610e11565b8160018114612872576002811461287c57612898565b6001915050610e11565b60ff84111561288d5761288d6125e6565b50506001821b610e11565b5060208310610133831016604e8410600b84101617156128bb575081810a610e11565b6128c583836127fd565b80600019048211156128d9576128d96125e6565b029392505050565b60006106328383612840565b60ff8281168282160390811115610e1157610e116125e6565b60008251612918818460208701612489565b9190910192915050565b602081526000610632602083018461254956fea26469706673582212200f391a5aa1c550db7eb20d9ff2332fecedc839943b7c7a18e0d59f3c3193643364736f6c63430008120033",
  "linkReferences": {},
  "deployedLinkReferences": {}
}